:0B928E004401590000000041015D0A8E
:10D70300900707EFF0900707E0FF90015DEFF0222D
:068F2F009014B1120BF2D8
:108F35009014B7E584F075840075E84075D1077520
:108F4500BA0075BB0F7F007E1B7DB77C009014B106
:108F5500E0F8A3E0F9A3E0FAA3E0FBD3120ADA40B4
:108F65003D7BA07A25792678009014B1E0FCA3E03A
:108F7500FDA3E0FEA3E0FF12C88C7B027A00790016
:108F8500780012C88CEF24FFFFEE34FFFEED34FFAE
:108F9500FDEC34FFFC7803120B018FBC803B7BB0EA
:108FA5007A71790B78009014B1E0FCA3E0FDA3E0A1
:108FB500FEA3E0FF12C88C7B027A007900780012CC
:108FC500C88CEF24FFFFEE34FFFEED34FFFDEC34DB
:108FD500FFFC7803120B018FBCD2EF9014B7E0FFB2
:108FE5008F849014B5E0FCA3E0FDEC1203C27B0076
:108FF5007A007980783912019E900159120BF27F1F
:049005000A12D70371
:019009002244
:05C91300900060EFF050
:10C91800900061E584F0758400900060E0FF8FBBB3
:10C9280090015DE0FF7E0012A284C2EDD2EC30EDF2
:10C93800FD900062E5BFF0A3E5BEF0C2ED90006196
:0CC94800E0FF8F84900062E0FEA3E0FF9F
:01C9540022C0
:0A9BF6009014B8EFF09014B9EDF0F0
:109C00009014BB120BFE000000009014BAE4F09018
:109C100014B9E0FF9014BAE0FEC3EF6480F8EE647C
:109C20008098504A9014BBE0FCA3E0FDA3E0FEA3A3
:109C3000E0FFC004C005C006C0079014B8E0FF12E2
:109C4000C913AB07AA06EA3395E0F9F8D007D006A6
:109C5000D005D004EF2BFFEE3AFEED39FDEC38FCD9
:109C60009014BB120BF29014BAE004F080A190148F
:109C7000BBE0FCA3E0FDA3E0FEA3E0FFEC1203BD0C
:109C8000900159E0F8A3E0F9A3E0FAA3E0FB120188
:109C90009EC004C005C006C0079014B9E0FCEC12D9
:109CA00003C7A804A905AA06AB07D007D006D005AC
:059CB000D0041202A720
:019CB500228C
:08A2840090066CEEF0A3EFF070
:10A28C0012D723EC1203BD7B457A2E79C278321299
:10A29C00019E90066E120BF290066EE0FCA3E0FDA0
:10A2AC00A3E0FEA3E0FFC004C005C006C0079006F3
:10A2BC006CE0FCA3E0FDE41203C2A804A905AA0605
:10A2CC00AB07D007D006D005D00412019E90066EC5
:10A2DC00120BF290066EE0FCA3E0FDA3E0FEA3E0FF
:10A2EC00FF7B007AFE797F784712034450067EFF8D
:10A2FC007FFF801190066EE0FCA3E0FDA3E0FEA3BF
:10A30C00E0FF1203FB90066CEEF0A3EFF090066CEE
:10A31C00E0FEA3E0FFEF4E601090066DE024FFF02E
:09A32C0090066CE034FFF080E4BF
:01A335002205
:10CFAF007D027F08129BF69006A0120BF27F007E87
:10CFBF00007D427CC49006A0E0F8A3E0F9A3E0FA5C
:10CFCF00A3E0FB1200AD7B3D7A0A7937784012025D
:01CFDF00A7AA
:01CFE000222E
:10D6A500040401040202010404010709030F09032C
:04D6B500020B0D0453
:106147009014BFEBF0A3EAF0A3E9F09014C2120B8E
:10615700F27F007E7D7D007C009014C2E0F8A3E012
:10616700F9A3E0FAA3E0FBD3120ADA50129014BFA6
:10617700E0FBA3E0FAA3E0F9E41207E10262CF7FB4
:10618700207E487D017C009014C2E0F8A3E0F9A3CB
:10619700E0FAA3E0FBD3120ADA50139014BFE0FB36
:1061A700A3E0FAA3E0F974011207E10262CF7FE8E6
:1061B7007E6E7D037C009014C2E0F8A3E0F9A3E0B3
:1061C700FAA3E0FBD3120ADA50139014BFE0FBA343
:1061D700E0FAA3E0F974021207E10262CF7FB07E12
:1061E700007D097C009014C2E0F8A3E0F9A3E0FA6F
:1061F700A3E0FBD3120ADA50139014BFE0FBA3E02D
:10620700FAA3E0F974031207E10262CF7F607EE32D
:106217007D167C009014C2E0F8A3E0F9A3E0FAA38E
:10622700E0FBD3120ADA50139014BFE0FBA3E0FAA5
:10623700A3E0F974041207E10262CF7F007E097DB3
:106247003D7C009014C2E0F8A3E0F9A3E0FAA3E0D4
:10625700FBD3120ADA50129014BFE0FBA3E0FAA3B3
:10626700E0F974051207E1805F7F807E967D987C58
:10627700009014C2E0F8A3E0F9A3E0FAA3E0FBD38F
:10628700120ADA50129014BFE0FBA3E0FAA3E0F978
:1062970074061207E180317F807EC37DC97C01903F
:1062A70014C2E0F8A3E0F9A3E0FAA3E0FBD3120AD3
:1062B700DA50129014BFE0FBA3E0FAA3E0F97407E9
:0B62C7001207E180037F00227F01220C
:108D7100900686EFF0900687EDF0900688EBF0A361
:058D8100EAF0A3E9F097
:108D86007BFF7AD679A5C003C002C0017B017A06B3
:108D9600798BA801AC02AD03D001D002D0037E00CE
:108DA6007F0A1206FE7BFF7AD679AFC003C002C0E7
:108DB600017B017A067995A801AC02AD03D001D0FA
:108DC60002D0037E007F0A1206FE900687E0FFEFC0
:108DD600C3940450037F0022900687E0FFEF24FC33
:108DE600FF900686E0FEEE75F005A4FEEE2FFF90DE
:108DF600069FEFF090069FE0FFEF3395E0FE748B41
:108E06002FF58274063EF583E0FF900688E0FBA30B
:108E1600E0FAA3E0F9758201758300EF1207F3907B
:108E2600069FE0FFEF3395E0FE74952FF5827406FA
:108E36003EF583E0FF900688E0FBA3E0FAA3E0F9A5
:0C8E4600758202758300EF1207F37F01B4
:018E520022FD
:1037FA00901423EFF0901424EDF0901425EBF0A32D
:05380A00EAF0A3E9F063
:10380F00901423E0FF901424E0FD901425E0FBA317
:10381F00E0FAA3E0F9128D71EF7003023B2A9014C6
:10382F0023E0FFEF700A7F007E807D517C018008CE
:10383F007F207ED77D757C01901428120BF2901497
:10384F0025E0FBA3E0FAA3E0F9758201758300126E
:10385F00075FFFAB07E4FAF9F8901428E0FCA3E048
:10386F00FDA3E0FEA3E0FF12C88C901425E0FBA39C
:10387F00E0FAA3E0F9758205758300120B7E9014B0
:10388F0025E0FBA3E0FAA3E0F9758202758300122D
:10389F00075FFFE4FCFDFE901425E0FBA3E0FAA315
:1038AF00E0F9758205758300120BC21209AF9014EF
:1038BF0025E0FBA3E0FAA3E0F975820975830012F6
:1038CF000B7E901425E0FBA3E0FAA3E0F9758205C7
:1038DF00758300120B347B407A4B794C7800D312EE
:1038EF000ADA5066901425E0FBA3E0FAA3E0F9751D
:1038FF008205758300120B347B817AC379C97801F5
:10390F00D3120ADA4044901425E0FBA3E0FAA3E0B7
:10391F00F9758209758300120B347B407A78797DB3
:10392F007801D3120ADA5022901425E0FBA3E0FAB3
:10393F00A3E0F9758209758300120B347B017AE1DC
:10394F0079F57805D3120ADA50037F0022901425F7
:10395F00E0FBA3E0FAA3E0F9758205758300120B73
:10396F00347B007A12797A7800D3120ADA401990F0
:10397F001425E0FBA3E0FAA3E0F975820375830039
:10398F00740F1207F3023A21901425E0FBA3E0FA1B
:10399F00A3E0F9758205758300120B347B207ABC86
:1039AF0079BE7800D3120ADA4018901425E0FBA3F1
:1039BF00E0FAA3E0F975820375830074071207F329
:1039CF008050901425E0FBA3E0FAA3E0F97582057F
:1039DF00758300120B347BE07A8B79297801D3122F
:1039EF000ADA4018901425E0FBA3E0FAA3E0F9757A
:1039FF00820375830074031207F38016901425E079
:103A0F00FBA3E0FAA3E0F97582037583007401123A
:103A1F0007F3901425E0FBA3E0FAA3E0F975820900
:103A2F00758300120B347BA07A7F79887802D312CA
:103A3F000ADA4019901425E0FBA3E0FAA3E0F97528
:103A4F00820475830074301207F3023AE59014254F
:103A5F00E0FBA3E0FAA3E0F9758209758300120B6E
:103A6F00347B207A1679217803D3120ADA40189022
:103A7F001425E0FBA3E0FAA3E0F975820475830037
:103A8F0074201207F3804F901425E0FBA3E0FAA3F4
:103A9F00E0F9758209758300120B347B207A437924
:103AAF00527804D3120ADA4018901425E0FBA3E0F1
:103ABF00FAA3E0F975820475830074101207F3807E
:103ACF0015901425E0FBA3E0FAA3E0F975820475C5
:103ADF008300E41207F3901425E0FBA3E0FAA3E0C0
:103AEF00F9758209758300120B34EF24FFFFEE3452
:103AFF00FFFEED34FFFDEC34FFFC7B407A78797DDF
:103B0F00780112C88C7804120B01901425E0FBA3E6
:103B1F00E0FAA3E0F9EF1207E180037F00227F01B3
:013B2F002273
:10CB4E009004DFE584F075840043EF069004E1E481
:10CB5E00F09004E0E5EFF09004E0E0FFEF20E10F4D
:10CB6E009004E0E0FFEF30E2069004E17401F090F3
:0BCB7E0004DFE0FF8F849004E1E0FF83
:01CB89002289
:10772000901459EFF090145AEDF090145BEBF0A325
:05773000EAF0A3E9F0FE
:1077350090145EE584F0901459E0FF90145AE0FD32
:1077450090145BE0FBA3E0FAA3E0F91237FAEF70BF
:10775500037F002275840F901459E0FFEF70047FBA
:107765000180027F008F97901459E0FFEF70047F2E
:107775000180027F00EF25E025E0F589901459E0AE
:10778500FFEF700353A1DF75840090145BE0FBA34A
:10779500E0FAA3E0F9120746FF8FB775840F90143E
:1077A50059E0FFEF700343A12043890190145BE08A
:1077B500FBA3E0FAA3E0F975820175830012075F68
:1077C500FF8F8D90145BE0FBA3E0FAA3E0F97582CF
:1077D5000375830012075FFF8F8F90145BE0FBA397
:1077E500E0FAA3E0F975820475830012075FFFEFE5
:1077F500428F90145BE0FBA3E0FAA3E0F9758202E7
:1078050075830012075FFF8F8E90145FE4F0A3E489
:10781500F090145FE0FEA3E0FFC3EF9464EE648094
:1078250094805010901460E004F0700690145FE0AE
:1078350004F080DD438902E58930E4FB7597029009
:08784500145EE0FF8F847F0157
:01784D002218
:0B7CED009012FDEBF0A3EAF0A3E9F019
:107CF800901303E584F09012FDE0FBA3E0FAA3E003
:107D0800F9120746FFEFC3940340147B017A1379F5
:107D1800077F007E807D517C01126147EF70037FF1
:107D2800012275840F758C60901307E0FFEF428C79
:107D3800901305E4F0A3E4F0901305E0FEA3E0FF40
:107D4800C3EF94A8EE9461501100901306E004F07C
:107D58007006901305E004F080DE901305E4F0A3AC
:107D6800E4F0901305E0FEA3E0FFC3EF94B8EE94AF
:107D78000B5022E58C5480FF901304EFF09013040D
:107D8800E0FFEF7010901306E004F0700690130502
:107D9800E004F080CD901304E0FFEF60519012FDF5
:107DA800E0FBA3E0FAA3E0F9120746FFEFC394044F
:107DB80040379012FDE0FBA3E0FAA3E0F912074672
:107DC800FD901300E0FBA3E0FAA3E0F97F0012772F
:107DD80020EF70249012FDE0FBA3E0FAA3E0F97411
:107DE800031207E1759701800F759701800A9013B8
:107DF80003E0FF8F847F0122901303E0FF8F847FCD
:017E08000079
:017E09002256
:0BB042009014C6EBF0A3EAF0A3E9F0C5
:10B04D009014CCE584F075840F9014C6E0FBA3E05A
:10B05D00FAA3E0F9120746FFEFC39404403D758A49
:10B06D00839014C6E0FBA3E0FAA3E0F9120746FDB6
:10B07D009014C9E0FBA3E0FAA3E0F97F0112772059
:10B08D00EF702F9014C6E0FBA3E0FAA3E0F9740370
:10B09D001207E1758A8375970080179014C6E0FB3F
:10B0AD00A3E0FAA3E0F9120746FFEF2480F58A75B5
:09B0BD0097009014CCE0FF8F8491
:01B0C6002267
:0589BE00901270EFF0C3
:1089C300901270E0FFEFD394084006901270740881
:1089D300F012CB4E9015C8EFF09015C8E0FFEF7082
:1089E3002B7B017A127970C003C002C0017B017A2C
:1089F300127971901300EBF0A3EAF0A3E9F0D00130
:108A0300D002D003127CED9015C8EFF09015C8E0AA
:108A1300FFEFB401267B017A127970C003C002C054
:108A2300017B017A1279719014C9EBF0A3EAF0A3E8
:108A3300E9F0D001D002D00312B042901270E0FFEF
:108A4300EFC39404401590127AE0FCA3E0FDA3E089
:108A5300FEA3E0FF9015C4120BF222901270E0FF08
:108A6300EFB403139015C8E0FFEF700B9015C41219
:108A73000BFE0151800022901270E0FF74087E000B
:108A8300A807088006CEA2E713CE13D8F8FFAB07DA
:108A9300AA06EA3395E0F9F87F207ED77D757C013D
:098AA30012C88C9015C4120BF2EC
:018AAC0022A7
:06D775009015C8E0FF2240
:0FD723009015C4E0FCA3E0FDA3E0FEA3E0FF220D
:109299004311AE00000042118E00004111AC0043A1
:1092A90011B10000004211880000411190004111E4
:0292B900AD0006
:10C6CB00901552EBF0A3EAF0A3E9F0901555ECF0BE
:03C6DB00A3EDF0DC
:10C6DE00E5E65402FF901557EFF053E6FD90155224
:10C6EE00E0FBA3E0FAA3E0F99011AEEBF0A3EAF0C1
:10C6FE00A3E9F0901555E0FEA3E0FF90118EEEF049
:0BC70E00A3EFF0901557E0FFEF42E6AC
:01C7190022FD
:0BC9550090163CEBF0A3EAF0A3E9F021
:10C960009011ACE0FF90163FEFF090163FE0FFEF24
:10C97000601E9011ACE4F090118AE0FEA3E0FF90FD
:10C98000163CE0FBA3E0FAA3E0F9EE8FF012096396
:05C9900090163FE0FFDE
:01C99500227F
:10C71A00901558EBF0A3EAF0A3E9F090155BECF062
:03C72A00A3EDF08C
:10C72D00E5E65402FF90155DEFF053E6FD901558C8
:10C73D00E0FBA3E0FAA3E0F99011B1EBF0A3EAF06E
:10C74D00A3E9F090155BE0FEA3E0FF901188EEF0F9
:0BC75D00A3EFF090155DE0FFEF42E657
:01C7680022AE
:0ABAF800901640EFF0901641EDF0BB
:10BB0200901640E0FFEF120CBEBB1500BB1C0100FB
:10BB120000BB5D9011ADE4F080089011ACE4F080C0
:10BB22000122E5E65402FF901643EFF053E6FD9042
:10BB32001640E0FF901641E0FEEE4FFF901190EFAD
:10BB4200F0901643E0FFEF42E6901642E584F0756E
:0BBB52008400D2C5901642E0FF8F84F3
:01BB5D0022C5
:0BC76900901644EBF0A3EAF0A3E9F007
:10C77400E5E65402FF901647EFF053E6FD7B017A9D
:10C78400117991C003C002C001901644E0FBA3E0FC
:10C79400FAA3E0F9A801AC02AD03D001D002D003A2
:0FC7A4007E007F1B1206FE901647E0FFEF42E675
:01C7B3002263
:05A06600901397EFF0DC
:10A06B0090139CE584F07F807E8D7D5B7C0090134C
:10A07B0098E0F8A3E0F9A3E0FAA3E0FBD3120ADA25
:10A08B00400A7F807E1A7D067C0080087F407E0D13
:10A09B007D037C0090139D120BF275840075C00735
:10A0AB007F087E007D007C0090139DE0F8A3E0F913
:10A0BB00A3E0FAA3E0FB1209AFA804A905AA06AB1B
:10A0CB0007901398E0FCA3E0FDA3E0FEA3E0FF12D2
:10A0DB00C88CEC1203BDA804A905AA06AB077FF632
:10A0EB007E687D807C431200A91203FB8FCF9013F7
:10A0FB0097E0FF8FC343C04043E60290139CE0FF01
:10A10B008F847E007F1B7D007B017A117991120E6B
:01A11B00EE55
:01A11C002220
:03003B0002346E1E
:10346E00C0E0C083C082C0D075D000C000C001C013
:0B347E0002C003C004C005C006C00768
:10348900E5C1131313541FFFEF541FFF9016EFEFFD
:10349900F09016EFE0FFC3EF6480949B50179016ED
:1034A900EFE0FFEF3395E0FE74912FF58274113E42
:1034B900F583E004F0AFC1EF120CBE37CD00351C27
:1034C90008351C1035381835662035882835D83028
:1034D90037DF3835FD40362B483630503688583678
:1034E900BF6036CF6836BF7036CF7836D480372A7A
:1034F9008836D490372A98372FA03738A83787B01D
:103509003738B8378BC037DFC837CDD037DFF80049
:103519000037D3901190E0FF8FC290118CE4F0A393
:10352900E4F090118AE4F0A3E4F0C2C50237DF9019
:1035390011B1E0FBA3E0FAA3E0F990118CE0FEA33E
:10354900E0FF8F828E8312075FFF8FC290118DE09B
:1035590004F0700690118CE004F00237DF9011AD91
:10356900E0FFC3EF64809494500BD2C59011ADE095
:1035790004F00237DFD2C49011ADE4F00237DF90D6
:103589001188E0FEA3E0FF90118CE0FCA3E0FDC3ED
:10359900ED9FEE6480F8EC648098502E9011B1E0B4
:1035A900FBA3E0FAA3E0F990118CE0FEA3E0FF8F02
:1035B900828E8312075FFF8FC290118DE004F07035
:1035C9000690118CE004F00237DFD2C40237DF9095
:1035D90011ADE0FFC3EF64809494500BD2C59011F4
:1035E900ADE004F00237DFD2C49011ADE4F0023748
:1035F900DF0237DF90118EE0FEA3E0FFEF24FFFF2B
:10360900EE34FFFE90118AE0FCA3E0FDC3ED9FEECE
:103619006480F8EC6480985003D38001C392C2029D
:1036290037DFD2C50237DF9011AEE0FBA3E0FAA382
:10363900E0F990118AE0FEA3E0FF8F828E83E5C254
:103649001207F390118BE004F0700690118AE004E0
:10365900F090118EE0FEA3E0FFEF24FFFFEE34FFB0
:10366900FE90118AE0FCA3E0FDC3ED9FEE6480F8B3
:10367900EC6480985003D38001C392C20237DF9073
:1036890011AEE0FBA3E0FAA3E0F990118AE0FEA3F2
:10369900E0FF8F828E83E5C21207F390118BE0045D
:1036A900F0700690118AE004F09011AC7401F0D228
:1036B900C4D2C20237DF9011ACE4F090118AE4F071
:1036C900A3E4F00237DFD2C50237DF9016EFE5C277
:1036D900F090118EE0FEA3E0FF90118AE0FCA3E0D8
:1036E900FDC3ED9FEE6480F8EC648098502090163D
:1036F900EFE0FF9011AEE0FBA3E0FAA3E0F990112F
:103709008AE0FCA3E0FD8D828C83EF1207F3901110
:103719008BE004F0700690118AE004F0D2C20237FF
:10372900DFD2C20237DF9011AC7401F00237DF90AB
:103739001188E0FEA3E0FF90118CE0FCA3E0FDC33B
:10374900ED9FEE6480F8EC648098502D9011B1E003
:10375900FBA3E0FAA3E0F990118CE0FEA3E0FF8F50
:10376900828E8312075FFF8FC290118DE004F07083
:103779000690118CE004F0805D75C2008058D2C5B6
:10378900805490118CE0FEA3E0FFC3E49FEE6480B7
:10379900F8E464809850259011B1E0FBA3E0FAA306
:1037A900E0F990118CE0FEA3E0FFEF24FFFFEE3477
:1037B900FFFE8F828E8312075FFF80027F008FC218
:1037C90080148012D2C4800E800C53C0BF43C04005
:0837D900C2C5C2C4C2C2C2C3D2
:1037E100D007D006D005D004D003D002D001D0003C
:0937F100D0D0D082D083D0E032A8
:05D2EF009016BDEFF0F8
:10D2F4009016BEE584F07584009016BDE0FFEF60E3
:10D304000543C301800353C3FE9016BEE0FF8F8420
:01D3140022F6
:0592BB004216BF000097
:10D04200E5E75401FF900577EFF053E7FE9016BF36
:10D05200E0FEA3E0FF900575EEF0A3EFF0900577F8
:0DD06200E0FFEF42E7900575E0FEA3E0FF60
:01D06F00229E
:069CB6009015C9120BF22B
:109CBC009015CDE584F075840175C8007F407E78E1
:109CCC007D7D7C019015C9E0F8A3E0F9A3E0FAA32F
:109CDC00E0FBD3120ADA402475C9009015C9E0FCE8
:109CEC00A3E0FDA3E0FEA3E0FF7B0C7A00790078F3
:109CFC000012C88C9015C9120BF2800375C908901C
:109D0C0015C9E0FCA3E0FDA3E0FEA3E0FF7B287AED
:109D1C00007900780012C88C9015C9120BF29015BE
:109D2C00C9E0FCA3E0FDA3E0FEA3E0FF7BFF7AFF0C
:109D3C0079007800C3120ADA500875CB0075CA0096
:109D4C0080159015C9E0FCA3E0FDA3E0FEA3E0FFA5
:109D5C00120ACC8ECB8FCA85CBCD85CACC43E701FA
:099D6C00D2CA9015CDE0FF8F84EE
:019D750022CB
:0300730002CA9529
:0DCA9500C0E0C083C082C0D075D000C007D3
:10CAA2009016F0E584F075840053C0BF43C04090F7
:10CAB20016F0E0FF8F849016C0E004F07006901626
:06CAC200BFE004F0C2CF4A
:0BCAC800D007D0D0D082D083D0E03265
:0BA11D009015CEEBF0A3EAF0A3E9F0F0
:10A128009015D1E4F0A3E4F0E59A30E7379015D123
:10A13800E475F0011208B2AFF0FE901648E0FCA3F7
:10A14800E0FDC3ED9FEE6480F8EC64809850D990F0
:10A15800164BE004F0700690164AE004F07F0022E7
:10A16800800280C49015CEE0FBA3E0FAA3E0F912C8
:10A178000746FF8F9B9015D1E4F0A3E4F020FF344D
:10A188009015D1E475F0011208B2AFF0FE901648B0
:10A19800E0FCA3E0FDC3ED9FEE6480F8EC648098DA
:10A1A80050DB90164BE004F0700690164AE004F07D
:10A1B800800280C99015CEE0FBA3E0FAA3E0F9E5A0
:08A1C8009B1207E1C2FF7F01B9
:01A1D000226C
:10AD0E00901308EBF0A3EAF0A3E9F090130BECF02C
:03AD1E00A3EDF0B2
:10AD2100901308E0FBA3E0FAA3E0F990130FEBF016
:10AD3100A3EAF0A3E9F0901312E584F07584009082
:10AD4100130DE4F0A3E4F090130BE0FEA3E0FF90F9
:10AD5100130DE0FCA3E0FDC3ED9FEE6480F8EC640D
:10AD61008098502C90130FE0FBA3E0FAA3E0F99038
:10AD7100130DE0FEA3E0FFE92FF9EA3EFA12A11D4F
:10AD810090130EE004F0700690130DE004F080B70C
:07AD9100901312E0FF8F8414
:01AD98002298
:10AA3A0090071AEBF0A3EAF0A3E9F090071DECF0F7
:03AA4A00A3EDF089
:10AA4D0090071AE0FBA3E0FAA3E0F9900721EBF0E1
:10AA5D00A3EAF0A3E9F0900725E584F07584009052
:10AA6D00071FE4F0A3E4F090071DE0FEA3E0FF90C4
:10AA7D00071FE0FCA3E0FDC3ED9FEE6480F8EC64DE
:10AA8D0080985039900721E0FBA3E0FAA3E0F990FC
:10AA9D00071FE0FEA3E0FF8F828E8312075FFF90FA
:10AAAD000724EFF07B017A07792412A11D9007206E
:10AABD00E004F0700690071FE004F080AA900725CF
:04AACD00E0FF8F8493
:01AAD1002262
:108E5300901461EFF0901462EBF0A3EAF0A3E9F051
:108E6300901465E0FEA3E0FFC3E49FEE6480F8E4A2
:108E73006480984003028F2C901462E0FBA3E0FA15
:108E8300A3E0F990129FEBF0A3EAF0A3E9F09012AC
:108E9300A4E4F0A3E4F0901461E0FFEF600D9014FC
:108EA30062E0FBA3E0FAA3E0F980067B017A147980
:108EB3006890129CEBF0A3EAF0A3E9F09012A2E40D
:108EC300F0A3E4F0901461E0FF9012A6EFF0901489
:108ED30067E584F0758400901465E0FEA3E0FF90DD
:108EE300129AEEF0A3EFF043E60190129FE0FBA38A
:108EF300E0FAA3E0F99012A4E0FEA3E0FF8F828ED4
:108F03008312075FFF8F9B7F057E0012A28453E6C7
:108F1300FE90129AE0FEA3E0FFEF4E600543E601E8
:0B8F230080E5901467E0FF8F847F0161
:018F2E002220
:03003300029B35F8
:109B3500C0E0C083C082C0D075D000C000C001C0E5
:109B450002C003C006C00730FF79C2FF90129CE037
:109B5500FBA3E0FAA3E0F99012A2E0FEA3E0FF8FD9
:109B6500828E83E59B1207F39012A6E0FFEF3395F3
:109B7500E0FE9012A3E02FF09012A2E03EF09012CA
:109B85009BE024FFF090129AE034FFF090129AE0E7
:109B9500FEA3E0FFEF4E602B9012A5E004F07006E7
:109BA5009012A4E004F090129FE0FBA3E0FAA3E07A
:109BB500F99012A4E0FEA3E0FF8F828E8312075F67
:109BC500FF8F9BE5F85470FFEF601190164BE00492
:109BD500F0700690164AE004F053F88FD007D006CF
:109BE500D003D002D001D000D0D0D082D083D0E035
:019BF500323D
:0A92C00042164A000042164801F46D
:06BA26009012C1120BF2A8
:10BA2C009012CCE584F07584007F027E007D007C52
:10BA3C00009012C5E0F8A3E0F9A3E0FAA3E0FB1232
:10BA4C0009AFA804A905AA06AB079012C1E0FCA394
:10BA5C00E0FDA3E0FEA3E0FF12C88C8F9D9012C9FD
:10BA6C00E0FFEF429AD2FBD2FAD2F89012CCE0FF70
:10BA7C008F849012CAE0FEA3E0FF901648EEF0A36C
:02BA8C00EFF0D9
:01BA8E002295
:10D07000E5E65401FF90167AEFF053E6FE90164A6B
:10D08000E0FEA3E0FF901678EEF0A3EFF090167AA2
:0DD09000E0FFEF42E6901678E0FEA3E0FF1F
:01D09D002270
:1092CA004211CA00004211C000004211BE00004112
:0792DA0011C2004111C300A5
:10D31500A2AC9209C2AC9011C6E4F0A3E4F090115E
:10D32500BCE4F0A3E4F09011BAE4F0A3E4F0A209A0
:02D3350092ACB8
:01D3370022D3
:10AF36009012CDEBF0A3EAF0A3E9F09012D0ECF07A
:03AF4600A3EDF088
:10AF49009012D8E584F09012CDE0FBA3E0FAA3E0DB
:10AF5900F99011B4EBF0A3EAF0A3E9F09012D0E074
:10AF6900FEA3E0FF9011C4EEF0A3EFF09012D2E03F
:10AF7900FBA3E0FAA3E0F99011B7EBF0A3EAF0A381
:10AF8900E9F09012D5E0FEA3E0FF9011C8EEF0A31E
:10AF9900EFF012D2A112D315758400759850901252
:10AFA900D7E0FF8F91C299C298D2AC9012D8E0FF36
:02AFB9008F8483
:01AFBB002273
:10D2A1009016F1E584F0758400C2ACC299C29890E1
:10D2B10011BAE4F0A3E4F09011CAE4F0A3E4F09011
:06D2C10016F1E0FF8F846E
:01D2C7002244
:10D33800A2AC920AC2AC9011BAE0FEA3E0FF90162C
:10D34800C1EEF0A3EFF0A20A92AC9016C1E0FEA3E2
:02D35800E0FFF4
:01D35A0022B0
:10935D009013A1EBF0A3EAF0A3E9F09013A4ECF0C5
:03936D00A3EDF07D
:109370009013A1E0FBA3E0FAA3E0F99013A6EBF0B1
:10938000A3EAF0A3E9F012D3389013A4E0FCA3E021
:10939000FDD3ED9FEE6480F8EC6480984003029466
:1093A000289013A9E4F0A3E4F09013A4E0FEA3E056
:1093B000FF9013A9E0FCA3E0FDC3ED9FEE6480F8ED
:1093C000EC648098505F9013A9E0FEA3E0FF901139
:1093D000BCE0FCA3E0FDED2FFFEC3EFE9011C4E0ED
:1093E000FCA3E0FD12087C9011B4E0FBA3E0FAA31B
:1093F000E0F98D828C8312075FFF9013A6E0FBA338
:10940000E0FAA3E0F99013A9E0FCA3E0FD8D828CC3
:1094100083EF1207F39013AAE004F070069013A9EB
:0A942000E004F080847F01227F0049
:01942A00221F
:08BD51009016C3EEF0A3EFF021
:10BD5900A2AC920BC2AC9011BAE0FEA3E0FF901620
:10BD6900C3E0FCA3E0FDC3EF9DFFEE9CFE9011BA7A
:10BD7900EEF0A3EFF09016C3E0FEA3E0FF9011BD33
:10BD8900E02FF09011BCE03EF09011BCE0FEA3E082
:10BD9900FF9011C4E0FCA3E0FD12087C9011BCECFB
:08BDA900F0A3EDF0A20B92AC37
:01BDB100226F
:0584A30090164CEFF003
:1084A80090164EE4F0A3E4F09011BEE0FEA3E0FFC6
:1084B8009011C8E0FCA3E0FDD3ED9FEE6480F8ECDA
:1084C800648098502390164EE0FEA3E0FFC3EF941B
:1084D800DCEE64809485501090164FE004F070062E
:1084E80090164EE004F080C09011BEE0FEA3E0FFBD
:1084F8009011C8E0FCA3E0FDD3ED9FEE6480F8EC9A
:1085080064809850079011C3E004F022A2AC920C4A
:10851800C2AC9011BEE0FEA3E0FFEF4E605E901685
:108528004CE0FF9011B7E0FBA3E0FAA3E0F990114B
:10853800C0E0FCA3E0FD8D828C83EF1207F390115D
:10854800C1E004F070069011C0E004F09011C8E09A
:10855800FEA3E0FF9011C0E0FCA3E0FDEDB5070C21
:10856800ECB506089011C0E4F0A3E4F09011BFE068
:1085780004F070069011BEE004F0802590164DE5D9
:1085880084F07584009011BFE004F070069011BE6D
:10859800E004F090164CE0FF8F9990164DE0FF8FA5
:0585A80084A20C92AC5E
:0185AD0022AB
:10B3C9009013ABEBF0A3EAF0A3E9F09013AEECF025
:03B3D900A3EDF0F1
:10B3DC009013ABE0FBA3E0FAA3E0F99013B2EBF00F
:10B3EC00A3EAF0A3E9F09013B0E4F0A3E4F0901317
:10B3FC00AEE0FEA3E0FF9013B0E0FCA3E0FDC3EDD4
:10B40C009FEE6480F8EC648098502E9013B2E0FBB1
:10B41C00A3E0FAA3E0F99013B0E0FEA3E0FF8F8263
:10B42C008E8312075FFF1284A39013B1E004F070B7
:09B43C00069013B0E004F080B5A5
:01B4450022E4
:03002300027F2732
:107F2700C0E0C083C082C0D075D000C000C001C00F
:107F370002C003C004C005C006C00730986DC298D0
:107F4700E59154C0FFEF600B9011C2E004F053912C
:107F57003F80589011B4E0FBA3E0FAA3E0F9901139
:107F6700C6E0FEA3E0FF8F828E83E5991207F390A8
:107F770011C7E004F070069011C6E004F09011C438
:107F8700E0FEA3E0FF9011C6E0FCA3E0FDEDB5071E
:107F97000CECB506089011C6E4F0A3E4F09011BB11
:107FA700E004F070069011BAE004F0309975C299B8
:107FB700E59130E5099011C3E004F05391DF90118A
:107FC700BFE024FFF09011BEE034FFF09011BEE057
:107FD700FEA3E0FFEF4E604B9011B7E0FBA3E0FA82
:107FE700A3E0F99011CAE0FEA3E0FF8F828E83120F
:107FF700075FFF8F999011CBE004F070069011CACC
:10800700E004F09011C8E0FEA3E0FF9011CAE0FC85
:10801700A3E0FDEDB5070CECB506089011CAE4F036
:10802700A3E4F0D007D006D005D004D003D002D007
:0C80370001D000D0D0D082D083D0E03245
:06D77B009011C2E0FF2244
:06D781009011C3E0FF223D
:06A90600901313120BF286
:10A90C0090131BE584F075840275C80075C9089016
:10A91C001313E0FCA3E0FDA3E0FEA3E0FFEC1203A5
:10A92C00BDC004C005C006C007901317E0FCA3E02F
:10A93C00FDA3E0FEA3E0FFEC1203BDA804A905AA49
:10A94C0006AB07D007D006D005D0041202A77B00B7
:10A95C007A00798078411202A77B007A007900781E
:10A96C003F1200AD1203FB90131CEEF0A3EFF0901E
:10A97C00131CE0FEA3E0FFC3E49FFFE49EFE8ECB1E
:10A98C008FCA85CBCD85CACC53E7FBD2CA90131B9B
:04A99C00E0FF8F84C5
:01A9A0002294
:1092E1004211F500004211EC00004211EA00004277
:1092F10011F900004211F000004211EE000041118D
:02930100F20078
:10B4460090131EEBF0A3EAF0A3E9F0901321ECF0C1
:03B45600A3EDF073
:10B45900901328E584F090131EE0FBA3E0FAA3E023
:10B46900F99011E4EBF0A3EAF0A3E9F0901321E0DD
:10B47900FEA3E0FF9011F3EEF0A3EFF0901323E0A9
:10B48900FBA3E0FAA3E0F99011E7EBF0A3EAF0A33C
:10B49900E9F0901326E0FEA3E0FF9011F7EEF0A388
:10B4A900EFF012D201758401759810C299C29843C0
:09B4B900E740901328E0FF8F84A6
:01B4C2002267
:10D201009016F2E584F075840153E7BFC299C29884
:10D211009011EAE4F0A3E4F09011F9E4F0A3E4F052
:07D221009016F2E0FF8F847C
:01D2280022E3
:10D09E00E5E75440FF90167DEFF053E7BF9011EA9D
:10D0AE00E0FEA3E0FF90167BEEF0A3EFF090167D6E
:0DD0BE00E0FFEF42E790167BE0FEA3E0FFED
:01D0CB002242
:10942B009013B5EBF0A3EAF0A3E9F09013B8ECF0CE
:03943B00A3EDF0AE
:10943E009013B5E0FBA3E0FAA3E0F99013BAEBF0BA
:10944E00A3EAF0A3E9F012D09E9013B8E0FCA3E0DB
:10945E00FDD3ED9FEE6480F8EC6480984003029497
:10946E00F69013BDE4F0A3E4F09013B8E0FEA3E091
:10947E00FF9013BDE0FCA3E0FDC3ED9FEE6480F80A
:10948E00EC648098505F9013BDE0FEA3E0FF901156
:10949E00ECE0FCA3E0FDED2FFFEC3EFE9011F3E0BF
:1094AE00FCA3E0FD12087C9011E4E0FBA3E0FAA31C
:1094BE00E0F98D828C8312075FFF9013BAE0FBA355
:1094CE00E0FAA3E0F99013BDE0FCA3E0FD8D828CE1
:1094DE0083EF1207F39013BEE004F070069013BDF5
:0A94EE00E004F080847F01227F007B
:0194F8002251
:08B9500090167EEEF0A3EFF06B
:10B95800E5E75440FF901680EFF053E7BF9011EAF7
:10B96800E0FEA3E0FF90167EE0FCA3E0FDC3EF9DA0
:10B97800FFEE9CFE9011EAEEF0A3EFF090167EE049
:10B98800FEA3E0FF9011EDE02FF09011ECE03EF007
:10B998009011ECE0FEA3E0FF9011F3E0FCA3E0FDC2
:10B9A80012087C9011ECECF0A3EDF0901680E0FF0B
:03B9B800EF42E774
:01B9BB002269
:058278009015D3EFF0AA
:10827D009015D6E4F0A3E4F09011EEE0FEA3E0FF3C
:10828D009011F7E0FCA3E0FDD3ED9FEE6480F8ECD8
:10829D0064809850239015D6E0FEA3E0FFC3EF94C1
:1082AD00D0EE6480948750109015D7E004F07006DE
:1082BD009015D6E004F080C09011EEE0FEA3E0FF33
:1082CD009011F7E0FCA3E0FDD3ED9FEE6480F8EC98
:1082DD0064809850079011F2E004F022E5E75440D5
:1082ED00FF9015D5EFF053E7BF9011EEE0FEA3E040
:1082FD00FFEF4E605E9015D3E0FF9011E7E0FBA31A
:10830D00E0FAA3E0F99011F0E0FCA3E0FD8D828C82
:10831D0083EF1207F39011F1E004F070069011F065
:10832D00E004F09011F7E0FEA3E0FF9011F0E0FC07
:10833D00A3E0FDEDB5070CECB506089011F0E4F0E7
:10834D00A3E4F09011EFE004F070069011EEE0045C
:10835D00F080259015D4E584F07584019011EFE03F
:10836D0004F070069011EEE004F09015D3E0FF8F4D
:10837D00999015D4E0FF8F849015D5E0FFEF42E77B
:01838D0022CD
:10B4C3009013BFEBF0A3EAF0A3E9F09013C2ECF002
:03B4D300A3EDF0F6
:10B4D6009013BFE0FBA3E0FAA3E0F99013C6EBF0EC
:10B4E600A3EAF0A3E9F09013C4E4F0A3E4F0901308
:10B4F600C2E0FEA3E0FF9013C4E0FCA3E0FDC3EDB1
:10B506009FEE6480F8EC648098502E9013C6E0FBA2
:10B51600A3E0FAA3E0F99013C4E0FEA3E0FF8F8254
:10B526008E8312075FFF1282789013C5E004F070D5
:09B53600069013C4E004F080B596
:01B53F0022E9
:0300A3000288C30D
:1088C300C0E0C083C082C0D075D000C000C001C06A
:1088D30002C003C004C005C006C00730985AC2983E
:1088E3009011E4E0FBA3E0FAA3E0F99011F5E0FEB8
:1088F300A3E0FF8F828E83E5991207F39011F6E0D0
:1089030004F070069011F5E004F09011F3E0FEA37B
:10891300E0FF9011F5E0FCA3E0FDEDB5070CECB52D
:1089230006089011F5E4F0A3E4F09011EBE004F0F5
:1089330070069011EAE004F0309967C2999011EF44
:10894300E024FFF09011EEE034FFF09011EEE0FE32
:10895300A3E0FFEF4E604B9011E7E0FBA3E0FAA327
:10896300E0F99011F9E0FEA3E0FF8F828E831207F6
:108973005FFF8F999011FAE004F070069011F9E00F
:1089830004F09011F7E0FEA3E0FF9011F9E0FCA3DF
:10899300E0FDEDB5070CECB506089011F9E4F0A382
:1089A300E4F0D007D006D005D004D003D002D00124
:0B89B300D000D0D0D082D083D0E032C2
:06D787009011F2E0FF2208
:06A3E300901329120BF299
:10A3E900901332E584F0758400901329E0FCA3E012
:10A3F900FDA3E0FEA3E0FFEC1203BDC004C005C04D
:10A4090006C00790132DE0FCEC1203C7A804A905A8
:10A41900AA06AB07D007D006D005D0041202A7C000
:10A4290004C005C006C00790132EE0FCA3E0FDA3FD
:10A43900E0FEA3E0FFEC1203BDA804A905AA06AB40
:10A4490007D007D006D005D0041202A77B007A00F6
:10A45900790078401202A77B007A007900783F12D0
:10A4690000AD1203FB901333EFF0901333E0FFEFCD
:10A47900F404F58D53890F438920C2ABD28E901312
:05A4890032E0FF8F84AA
:01A48E0022AB
:0AD7590053FF7F43FF0775FFA52271
:0400260075FFA5229B
:10D6CD00A2AF920DC2AFC2AF75FFDE75FFADA20D59
:02D6DD0092AF0A
:01D6DF002228
:04002E0075FFFF2239
:059303004214690000A6
:10CF49009016C5EFF09016C6EDF090146EE0FBA3B5
:10CF5900E0FAA3E0F99016C6E0FFEFFD7C0012C7E6
:10CF69001A9016C5E0FD7F0012BAF87F027E001202
:03CF7900CDC722FF
:10CF7C009016C7EFF09016C8EDF090146BE0FBA381
:10CF8C00E0FAA3E0F99016C8E0FFEFFD7C0012C6B2
:10CF9C00CB9016C7E0FD7F0112BAF87F027E00121B
:03CFAC00CDC722CC
:10CD1F0090155EEBF0A3EAF0A3E9F090155EE0FB4F
:10CD2F00A3E0FAA3E0F990146EEBF0A3EAF0A3E905
:10CD3F00F0901561E0FBA3E0FAA3E0F990146BEB20
:08CD4F00F0A3EAF0A3E9F022D1
:10D52D0090146EE0FBA3E0FAA3E0F974AA1207E1F0
:08D53D007D017FA012CF4922FD
:10D5450090146EE0FBA3E0FAA3E0F974211207E161
:08D555007D017FA012CF4922E5
:0BB8E3009015D8EBF0A3EAF0A3E9F009
:10B8EE007D017FA012CF7C7B017A1579DB12C955C1
:10B8FE00EF602F9015DBE0FEA3E0FFEF64014E70CA
:10B90E002190146BE0FBA3E0FAA3E0F9120746FFC7
:10B91E009015D8E0FBA3E0FAA3E0F9EF1207E17F60
:10B92E0001229015D8E0FBA3E0FAA3E0F9E4120798
:10B93E00E190146AE004F07006901469E004F07F60
:01B94E0000F8
:01B94F0022D5
:10D55D0090146EE0FBA3E0FAA3E0F974221207E148
:08D56D007D017FA012CF4922CD
:0B95C600901471EBF0A3EAF0A3E9F0B1
:1095D1007D117FA012CF7C7B017A14797712C95556
:1095E100EF7003029681901477E0FEA3E0FFEF6431
:1095F100114E600302968190146BE0FBA3E0FAA385
:10960100E0F9120746FF901474E0FBA3E0FAA3E02F
:10961100F9EF1207E1901474E0FBA3E0FAA3E0F97B
:10962100120746FFC3EF6480F8E4648098505190BC
:109631001474E0FBA3E0FAA3E0F9120746FFD3EFAD
:1096410064809490503A90146BE0FBA3E0FAA3E09D
:10965100F9E92401F9EA3400FAC003C002C001901B
:109661001471E0FBA3E0FAA3E0F9A801AC02AD0399
:10967100D001D002D0037E007F101206FE7F0122AE
:1096810090146AE004F07006901469E004F07F0021
:0196910022B6
:10D5750090146EE0FBA3E0FAA3E0F974241207E12E
:08D585007D017FA012CF4922B5
:10D58D0090146EE0FBA3E0FAA3E0F9741A1207E120
:08D59D007D017FA012CF49229D
:107979007D107FA012CF7C7B017A1479CD12C95575
:10798900EF7003027A929014CDE0FEA3E0FFEF645A
:10799900104E6003027A927B017A0679209014D105
:1079A900EBF0A3EAF0A3E9F090146BE0FBA3E0FA93
:1079B900A3E0F9C003C002C0019014D1E0FBA3E029
:1079C900FAA3E0F9A801AC02AD03D001D002D003BB
:1079D9007E007F101206FE9014CFE4F09014CFE0E1
:1079E900FFC3EF648094904003027A8F9014D1E032
:1079F900FBA3E0FAA3E0F99014CFE0FFEF3395E0A1
:107A0900FE8F828E8312075FFF9014D0EFF09014DF
:107A1900CFE0FFEF3395E0FEEF2401FFEE3400FEE7
:107A29009014D1E0FBA3E0FAA3E0F98F828E8312D0
:107A3900075FFF9014D1E0FBA3E0FAA3E0F99014EB
:107A4900CFE0FEEEFD3395E0FC8D828C83EF1207CB
:107A5900F39014D0E0FF9014CFE0FEEEFD3395E0F3
:107A6900FCED2401FDEC3400FC9014D1E0FBA3E013
:107A7900FAA3E0F98D828C83EF1207F39014CFE01B
:107A89002402F00279E57F012290146AE004F07083
:097A990006901469E004F07F007E
:017AA20022C1
:10D5A50090146EE0FBA3E0FAA3E0F974401207E1E2
:08D5B5007D017FA012CF492285
:10BE12007D037FA012CF7C7B017A1679C912C955A6
:10BE2200EF603B9016C9E0FEA3E0FFEF64034E70A3
:10BE32002D90146BE0FBA3E0FAA3E0F9C003C0026B
:10BE4200C0017B017A067930A801AC02AD03D001B2
:10BE5200D002D0037E007F031206FE7F01229014DF
:0EBE62006AE004F07006901469E004F07F00BE
:01BE700022AF
:10D5BD0090146EE0FBA3E0FAA3E0F974AA1207E160
:08D5CD007D017FA212CF49226B
:10B797009015DDEBF0A3EAF0A3E9F09015E0ECF0EB
:10B7A700A3EDF090146EE0FBA3E0FAA3E0F97410A8
:10B7B7001207E19015E0E0FEA3E0FF9015DDE0FB46
:10B7C700A3E0FAA3E0F9C003C002C00190146EE041
:10B7D700FBA3E0FAA3E0F9E92401F9EA3400FAA8A7
:10B7E70001AC02AD03D001D002D0031206FE9015C2
:0FB7F700E0E0FEA3E0FFEF04FD7FA212CF4922A6
:0BBA8F009015E2EBF0A3EAF0A3E9F051
:10BA9A007D017FA212CF7C7B017A1579E512C95507
:10BAAA00EF60359015E5E0FEA3E0FFEF64014E700C
:10BABA002790146BE0FBA3E0FAA3E0F9120746FF14
:10BACA00900633EFF0FF9015E2E0FBA3E0FAA3E063
:10BADA00F9EF1207E17F0122900633E4F090146A2D
:0DBAEA00E004F07006901469E004F07F00A5
:01BAF700222C
:10C21D009016F3EFF090146EE0FBA3E0FAA3E0F9B3
:10C22D0074241207E19016F3E0FF90146EE0FBA367
:10C23D00E0FAA3E0F9758201758300EF1207F37D33
:10C24D00027FA212CF499016F3E0FFEF600F900628
:10C25D0037E0FFEF4440FF900637EFF022900637AE
:0CC26D00E0FFEF54BFFF900637EFF02217
:10CE37009016F4EFF090146EE0FBA3E0FAA3E0F98C
:10CE470074251207E19016F4E0FF90146EE0FBA33F
:10CE5700E0FAA3E0F9758201758300EF1207F37D0D
:07CE6700027FA212CF492255
:10C8D0009016F5EFF090146EE0FBA3E0FAA3E0F9F8
:10C8E00074281207E19016F5E0FF7401A80708808C
:10C8F00002C333D8FCFF90146EE0FBA3E0FAA3E080
:10C90000F9758201758300EF1207F37D027FA21291
:03C91000CF4922EA
:10BDB2009016CBEEF0A3EFF090146EE0FBA3E0FA46
:10BDC200A3E0F974291207E19016CBE0FEA3E0FF8D
:10BDD20090146EE0FBA3E0FAA3E0F975820175838B
:10BDE20000EF1207F39016CBE0FEA3E0FFEEFF3365
:10BDF20095E0FE90146EE0FBA3E0FAA3E0F97582F1
:10BE020002758300EF1207F37D037FA212CF49224E
:10D5D50090146EE0FBA3E0FAA3E0F974401207E1B2
:08D5E5007D017FA212CF492253
:10BE71007D037FA212CF7C7B017A1679CD12C95541
:10BE8100EF603B9016CDE0FEA3E0FFEF64034E7040
:10BE91002D90146BE0FBA3E0FAA3E0F9C003C0020C
:10BEA100C0017B017A067934A801AC02AD03D0014F
:10BEB100D002D0037E007F031206FE7F0122901480
:0EBEC1006AE004F07006901469E004F07F005F
:01BECF002250
:10D5ED0090146EE0FBA3E0FAA3E0F974411207E199
:08D5FD007D017FA212CF49223B
:10BB5E007D017FA212CF7C7B017A1679CF12C95557
:10BB6E00EF60419016CFE0FEA3E0FFEF64014E7050
:10BB7E003390146BE0FBA3E0FAA3E0F9120746FF43
:10BB8E00EF5480FFEF3395E0FEEF4E701790146B7D
:10BB9E00E0FBA3E0FAA3E0F9120746FF900637EFA9
:10BBAE00F07F012290146AE004F07006901469E0B0
:04BBBE0004F07F0010
:01BBC2002260
:10B806009015E7EBF0A3EAF0A3E9F09015EAECF067
:10B81600A3EDF090146EE0FBA3E0FAA3E0F9741236
:10B826001207E19015EAE0FEA3E0FF9015E7E0FBC2
:10B83600A3E0FAA3E0F9C003C002C00190146EE0D1
:10B84600FBA3E0FAA3E0F9E92401F9EA3400FAA837
:10B8560001AC02AD03D001D002D0031206FE901552
:0FB86600EAE0FEA3E0FFEF04FD7FA212CF49222C
:10D6E0000000000A001E03DE3E8043F848A84D58A3
:02D6F00055F0F3
:1053960090142CEEF0A3EFF090142EEDF090142F55
:0553A600EAF0A3EBF0AA
:1053AB0090142EE0FFD3EF6480F874016480984072
:1053BB000302556990142EE0FFD3EF64809487406D
:1053CB000302556990142EE0FFEF3395E0FEEF25B5
:1053DB00E0FFEE33FE74E02FF58274D63EF583E4E6
:1053EB0093FE740193FF90142FE0FCA3E0FDEF2DCF
:1053FB00FFEE3CFEE4FCFD901431120BF290142EE8
:10540B00E0FFEF3395E0FEEF25E0FFEE33FE74E2B5
:10541B002FF58274D63EF583E493FE740193FFE47B
:10542B00FCFD901431E0F8A3E0F9A3E0FAA3E0FB54
:10543B00C3120AF0400302556990142EE0FFD3EF1C
:10544B0064809483504E901431E0FCA3E0FDA3E004
:10545B00FEA3E0FFC004C005C006C00790142CE0FB
:10546B00FEA3E0FF7E00EF540FFF7C037DE81208E4
:10547B0015AB07AA06E4F9F8D007D006D005D0047F
:10548B00EF2BFFEE3AFEED39FDEC38FC90143112A8
:10549B000BF2806A90142EE0FFD3EF6480F8740552
:1054AB00648098505990142EE0FFD3EF648094865B
:1054BB00504C901431E0FCA3E0FDA3E0FEA3E0FF11
:1054CB00C004C005C006C00790142CE0FEA3E0FF8B
:1054DB007E00EF5403FF7C017D2C120815AB07AA4D
:1054EB0006E4F9F8D007D006D005D004EF2BFFEE79
:1054FB003AFEED39FDEC38FC901431120BF290149E
:10550B0031E0F8A3E0F9A3E0FAA3E0FB9005D5E0C6
:10551B00FFEF3395E0FEFDFC1209AF901431120B37
:10552B00F2901431E0FCA3E0FDA3E0FEA3E0FF90BA
:10553B0005D1E0F8A3E0F9A3E0FAA3E0FBEF2BFF22
:10554B00EE3AFEED39FDEC38FC901431120BF29073
:10555B001431E0FCA3E0FDA3E0FEA3E0FF227F00FB
:06556B007E007D007C00C3
:015571002217
:1090E40090127EEBF0A3EAF0A3E9F0901281ECF089
:0390F400A3EDF0F9
:1090F70090127EE0FBA3E0FAA3E0F912CC74901281
:1091070083EEF0A3EFF090127EE0FBA3E0FAA3E07A
:10911700F912CE6E901285EFF090127EE0FBA3E07D
:10912700FAA3E0F912CCAD901286EEF0A3EFF0901F
:109137001283E0FEA3E0FF901285E0FD901286E027
:10914700FAA3E0FB125396901288120BF27F007E6F
:10915700007D007C00901288E0F8A3E0F9A3E0FA14
:10916700A3E0FBC3120AF06047901288E0FCA3E07B
:10917700FDA3E0FEA3E0FFC004C005C006C0079042
:10918700127EE0FBA3E0FAA3E0F9901281E0FEA3D0
:10919700E0FF9012BBEEF0A3EFF09005D5E0FF9053
:1091A70012BDEFF0D007D006D005D004124F9F2292
:0291B7007F0037
:0191B9002293
:10A1D100901252EEF0A3EFF0901254EDF090125560
:05A1E100EAF0A3EBF021
:10A1E600901252E0FEA3E0FF901254E0FD9012554B
:10A1F600E0FAA3E0FB12539690125C120BF27F007A
:10A206007E007D007C0090125CE0F8A3E0F9A3E0FC
:10A21600FAA3E0FBC3120AF060047F0180027F000C
:10A22600901260EFF0901260E0FFEF604B90125CCE
:10A23600E0FCA3E0FDA3E0FEA3E0FFC004C005C070
:10A2460006C007901257E0FBA3E0FAA3E0F99012CC
:10A256005AE0FEA3E0FF9012ECEEF0A3EFF09005BB
:10A26600D5E0FF9012EEEFF0D007D006D005D0046F
:0DA27600125906901260EFF0901260E0FFA8
:01A2830022B8
:0B94F9009014D4EBF0A3EAF0A3E9F01C
:109504009014D4E0FBA3E0FAA3E0F9120B14901436
:10951400D7120BF29014D7E0FCA3E0FDA3E0FEA366
:10952400E0FF9005CBE0F8A3E0F9A3E0FAA3E0FBA9
:10953400120A3AAC00AD01AE02AF039014D7120B7D
:10954400F29005CFE0FFEF3395E0FEFDFC9014D7D9
:10955400E0F8A3E0F9A3E0FAA3E0FB1209AFC0042A
:10956400C005C006C0079014D4E0FBA3E0FAA3E052
:10957400F975820475830012075FFFAB07EB33951F
:10958400E0FAF9F8D007D006D005D004EF2BFBEEB3
:109594003AFAED39F9EC38F89005D0E0FFEF33955D
:1095A400E0FEFDFC1209AF9005C7E0F8A3E0F9A3C3
:1095B400E0FAA3E0FBEF2BFFEE3AFEED39FDEC38C9
:0195C400FCAA
:0195C5002283
:10B9BC00901479EBF0A3EAF0A3E9F090147FE0FE89
:10B9CC00A3E0FF7D0090147CE0FBA3E0FAA3E0F978
:10B9DC00120EEE901479E0FBA3E0FAA3E0F91294B6
:10B9EC00F9C004C005C006C00790147CE0FBA3E0BE
:10B9FC00FAA3E0F990147FE0FEA3E0FF9012ECEEC6
:10BA0C00F0A3EFF09005D0E0FF9012EEEFF0D0072E
:0ABA1C00D006D005D004125906220E
:10C53400901481EBF0A3EAF0A3E9F0901481E0FBFE
:10C54400A3E0FAA3E0F91294F9C004C005C006C040
:10C5540007901484E0FBA3E0FAA3E0F9901487E0C9
:10C56400FEA3E0FF9012BBEEF0A3EFF09005D0E045
:10C57400FF9012BDEFF0D007D006D005D004124FC3
:02C584009F22F4
:049308004116F60113
:1022B200901652E4F0A3E4F09005C2E0FF901651AC
:1022C200EFF09006B7E0FCA3E0FDA3E0FEA3E0FF81
:1022D200C004C005C006C0077B017A09790C9012C0
:1022E200ECE4F0A374EEF09006BDE0FF9012EEEF86
:1022F200F0D007D006D005D004125906901650EF40
:10230200F0901651E0FF9005C2E0FEC3EE9FFF90F1
:1023120006BEEFF0901650E0FFEF700302279C908C
:102322001652E0FEA3E0FF74152FF974093EFA7B02
:1023320001C003C002C0017B017A05797CA801AC0F
:1023420002AD03D001D002D0037E007F061206FE4A
:10235200901653E02406F0901652E03400F09016E6
:1023620052E0FEA3E0FF74152FF974093EFA7B01D7
:10237200C003C002C0017B017A05798BA801AC02BF
:10238200AD03D001D002D0037E007F041206FE907E
:102392001653E02404F0901652E03400F0901652E6
:1023A200E0FEA3E0FF74152FF974093EFA7B01C029
:1023B20003C002C0017B017A0579C7A801AC02AD56
:1023C20003D001D002D0037E007F0A1206FE9016CF
:1023D20053E0240AF0901652E03400F0901652E0D6
:1023E200FEA3E0FF74152FF974093EFA7B01C003C6
:1023F200C002C0017B017A0579D1A801AC02AD030C
:10240200D001D002D0037E007F051206FE90165343
:10241200E02405F0901652E03400F0901652E0FEEF
:10242200A3E0FF74152FF974093EFA7B01C003C0C3
:1024320002C0017B017A06793CA801AC02AD03D04F
:1024420001D002D0037E007F041206FE901653E0F4
:102452002404F0901652E03400F0901652E0FEA3ED
:10246200E0FF74152FF974093EFA7B01C003C00224
:10247200C0017B017A067939A801AC02AD03D00113
:10248200D002D0037E007F011206FE901653E004B4
:10249200F07006901652E004F0901652E0FEA3E0AF
:1024A200FF74152FF974093EFA7B01C003C002C004
:1024B200017B017A067941A801AC02AD03D001D0BB
:1024C20002D0037E007F041206FE901653E024041D
:1024D200F0901652E03400F0901652E0FEA3E0FFB6
:1024E20074152FF974093EFA7B01C003C002C001C2
:1024F2007B017A06794CA801AC02AD03D001D0026F
:10250200D0037E007F041206FE901653E02404F0EE
:10251200901652E03400F0901652E0FEA3E0FF74F1
:10252200152FF974093EFA7B01C003C002C0017B7A
:10253200017A077916A801AC02AD03D001D002D00E
:10254200037E007F021206FE901653E02402F090F2
:102552001652E03400F0901652E0FEA3E0FF74152C
:102562002FF974093EFA7B01C003C002C0017B014E
:102572007A067915A801AC02AD03D001D002D003CE
:102582007E007F041206FE901653E02404F090169B
:1025920052E03400F0901652E0FEA3E0FF74152FD3
:1025A200F974093EFA7B01C003C002C0017B017AC3
:1025B200007964A801AC02AD03D001D002D0037E41
:1025C200007F021206FE901653E02402F09016528B
:1025D200E03400F0901652E0FEA3E0FF74152FF9EC
:1025E20074093EFA7B01C003C002C0017B017A0577
:1025F200794DA801AC02AD03D001D002D0037E0018
:102602007F021206FE901653E02402F0901652E06A
:102612003400F0901652E0FEA3E0FF74152FF97417
:10262200093EFA7B01C003C002C0017B017A057931
:1026320053A801AC02AD03D001D002D0037E007FCB
:10264200021206FE901653E02402F0901652E03475
:1026520000F0901652E0FEA3E0FF74152FF9740902
:102662003EFA7B01C003C002C0017B017A0579B941
:10267200A801AC02AD03D001D002D0037E007F07D7
:102682001206FE901653E02407F0901652E0340032
:10269200F0901652E0FEA3E0FF74152FF974093E84
:1026A200FA7B01C003C002C0017B017A0579C0A890
:1026B20001AC02AD03D001D002D0037E007F07122D
:1026C20006FE901653E02407F0901652E03400F014
:1026D200901652E0FEA3E0FF74152FF974093EFA3A
:1026E2007B01C003C002C0017B017A0579FDA8010C
:1026F200AC02AD03D001D002D0037E007F011206EE
:10270200FE901653E004F07006901652E004F0902A
:1027120016F6E0FFEF605A90058BE0F8A3E0F9A30C
:10272200E0FAA3E0FB9016F6E0FFEF3395E0FEFD42
:10273200FCEB2FFFEA3EFEE93DFDE83CFC90058BF9
:10274200120BF290057CE0FCA3E0FDA3E0FEA3E007
:10275200FF900582E0F8A3E0F9A3E0FAA3E0FBEF23
:102762002BFFEE3AFEED39FDEC38FC90057C120BA6
:10277200F29016F6E4F0900615E0FCA3E0FDA3E06B
:10278200FEA3E0FFEF54FFFFEE54FFFEED54FFFD0A
:0A279200EC5400FC900615120BF247
:01279C00221A
:102C2000901656E4F0A3E4F07B017A05797CC003AA
:102C3000C002C001901656E0FEA3E0FF74692FF9B0
:102C400074003EFA7B01A801AC02AD03D001D002B2
:102C5000D0037E007F061206FE901657E02406F091
:102C6000901656E03400F07B017A05798BC003C0E2
:102C700002C001901656E0FEA3E0FF74692FF974BC
:102C8000003EFA7B01A801AC02AD03D001D002D016
:102C9000037E007F041206FE901657E02404F09095
:102CA0001656E03400F07B017A0579C7C003C002F4
:102CB000C001901656E0FEA3E0FF74692FF974007E
:102CC0003EFA7B01A801AC02AD03D001D002D003D3
:102CD0007E007F0A1206FE901657E0240AF0901636
:102CE00056E03400F07B017A0579D1C003C002C000
:102CF00001901656E0FEA3E0FF74692FF974003EC0
:102D0000FA7B01A801AC02AD03D001D002D0037E52
:102D1000007F051206FE901657E02405F090165627
:102D2000E03400F07B017A06793CC003C002C001A8
:102D3000901656E0FEA3E0FF74692FF974003EFA86
:102D40007B01A801AC02AD03D001D002D0037E000C
:102D50007F041206FE901657E02404F0901656E009
:102D60003400F07B017A067939C003C002C00190BB
:102D70001656E0FEA3E0FF74692FF974003EFA7B5B
:102D800001A801AC02AD03D001D002D0037E007FC8
:102D9000011206FE901657E004F07006901656E0F9
:102DA00004F07B017A067941C003C002C00190168D
:102DB00056E0FEA3E0FF74692FF974003EFA7B0130
:102DC000A801AC02AD03D001D002D0037E007F0485
:102DD0001206FE901657E02404F0901656E03400D8
:102DE000F07B017A06794CC003C002C001901656F0
:102DF000E0FEA3E0FF74692FF974003EFA7B01A89E
:102E000001AC02AD03D001D002D0037E007F0412DA
:102E100006FE901657E02404F0901656E03400F0B9
:102E20007B017A077916C003C002C001901656E0F4
:102E3000FEA3E0FF74692FF974003EFA7B01A8013C
:102E4000AC02AD03D001D002D0037E007F02120697
:102E5000FE901657E02402F0901656E03400F07B06
:102E6000017A067915C003C002C001901656E0FE33
:102E7000A3E0FF74692FF974003EFA7B01A801AC4E
:102E800002AD03D001D002D0037E007F041206FE03
:102E9000901657E02404F0901656E03400F07B01C1
:102EA0007A007964C003C002C001901656E0FEA308
:102EB000E0FF74692FF974003EFA7B01A801AC02AF
:102EC000AD03D001D002D0037E007F021206FE9037
:102ED0001657E02402F0901656E03400F07B017A99
:102EE00005794DC003C002C001901656E0FEA3E074
:102EF000FF74692FF974003EFA7B01A801AC02ADA2
:102F000003D001D002D0037E007F021206FE90168D
:102F100057E02402F0901656E03400F07B017A0569
:102F20007953C003C002C001901656E0FEA3E0FF33
:102F300074692FF974003EFA7B01A801AC02AD035D
:102F4000D001D002D0037E007F021206FE901657F9
:102F5000E02402F0901656E03400F07B017A057907
:102F6000B9C003C002C001901656E0FEA3E0FF7492
:102F7000692FF974003EFA7B01A801AC02AD03D0C1
:102F800001D002D0037E007F071206FE901657E0A4
:102F90002407F0901656E03400F07B017A0579C0E2
:102FA000C003C002C001901656E0FEA3E0FF7469A2
:102FB0002FF974003EFA7B01A801AC02AD03D001E9
:102FC000D002D0037E007F071206FE901657E02441
:102FD00007F0901656E03400F07B017A0579FDC0C9
:102FE00003C002C001901656E0FEA3E0FF74692FF3
:102FF000F974003EFA7B01A801AC02AD03D001D008
:1030000002D0037E007F011206FE901657E004F006
:103010007006901656E004F0901656E0FCA3E0FD12
:103020007B017A09790C7F697E00125C72901654DC
:10303000EEF0A3EFF09006B7E0FCA3E0FDA3E0FE06
:10304000A3E0FFC004C005C006C0077B017A097970
:103050000C901654E0FEA3E0FF9012BBEEF0A3EF3D
:10306000F09006BDE0FF9012BDEFF0D007D006D083
:0630700005D004124F9F81
:013076002237
:1062D2009012A7EFF09012A8ECF0A3EDF09012AAA2
:0562E200EAF0A3EBF05F
:1062E7007BFF7A007936C003C002C0019012AFE08D
:1062F700FBA3E0FAA3E0F9A801AC02AD03D001D0FB
:1063070002D0037E007F041206FE9012AFE0FBA3CB
:10631700E0FAA3E0F975820475830074011207F3AC
:106327009012A7E0FF9012AFE0FBA3E0FAA3E0F919
:10633700758205758300EF1207F39012A8E0FEA39C
:10634700E0FFEEFF3395E0FE9012AFE0FBA3E0FA2B
:10635700A3E0F9758206758300EF1207F39012A880
:10636700E0FEA3E0FF9012AFE0FBA3E0FAA3E0F9A1
:10637700758207758300EF1207F39012AAE0FEA358
:10638700E0FF9012AFE0FBA3E0FAA3E0F975820803
:10639700758300EF1207F39012AAE0FEA3E0FF90C7
:1063A70012ACE0FBA3E0FAA3E0F9C003C002C0010E
:1063B7009012AFE0FBA3E0FAA3E0F9E92409F9EAB8
:1063C7003400FAA801AC02AD03D001D002D0031209
:1063D70006FE9012AFE0FBA3E0FAA3E0F99012AA41
:1063E700E0FEA3E0FFEF2409FDEE3400FC9012F677
:1063F700E4F0A3E4F012A86912CBC69012B2EEF053
:10640700A3EFF07B017A1279B2C003C002C00190FA
:1064170012AFE0FBA3E0FAA3E0F99012AAE0FEA313
:10642700E0FFEF2409FFEE3400FEE92FF9EA3EFA18
:10643700A801AC02AD03D001D002D0037E007F02D9
:106447001206FE9012AAE0FEA3E0FFEF240BFFEE78
:036457003400FE10
:01645A00221F
:1065DF009013C9EFF09013CAECF0A3EDF09013CC29
:0565EF00EAF0A3EBF04F
:1065F4007BFF7A007936C003C002C0019013CEE05D
:10660400FBA3E0FAA3E0F9A801AC02AD03D001D0EA
:1066140002D0037E007F041206FE9013CEE0FBA39B
:10662400E0FAA3E0F975820475830074021207F39B
:106634009016D6E0FF9013CEE0FBA3E0FAA3E0F9B6
:10664400758205758300EF1207F39013CEE0FBA368
:10665400E0FAA3E0F9758206758300E41207F3906B
:1066640013CEE0FBA3E0FAA3E0F97582077583007B
:10667400E41207F39013CEE0FBA3E0FAA3E0F9756C
:10668400820875830074051207F39013C9E0FF9024
:1066940013CEE0FBA3E0FAA3E0F975820975830049
:1066A400EF1207F39013CAE0FEA3E0FFEEFF339569
:1066B400E0FE9013CEE0FBA3E0FAA3E0F975820AB2
:1066C400758300EF1207F39013CAE0FEA3E0FF9076
:1066D40013CEE0FBA3E0FAA3E0F975820B75830007
:1066E400EF1207F39013CCE0FEA3E0FF9013CEE08B
:1066F400FBA3E0FAA3E0F975820C758300EF12079F
:10670400F39013CEE0FBA3E0FAA3E0F99012F6E4D1
:10671400F0A3E4F07D0D7C0012A86912CBC690139F
:10672400D1EEF0A3EFF07B017A1379D1C003C0025C
:10673400C0019013CEE0FBA3E0FAA3E0F9E9240D35
:10674400F9EA3400FAA801AC02AD03D001D002D0BA
:0C675400037E007F021206FE7E007F0F15
:016760002216
:0F930C004313D60000004113D5004213DB0000CD
:10BCEF009015ECEBF0A3EAF0A3E9F09015EFECF070
:10BCFF00A3EDF09015ECE0FBA3E0FAA3E0F99013AD
:10BD0F00D6EBF0A3EAF0A3E9F09013D5E4F090138B
:10BD1F00DBE4F0A3E4F09015EFE0FEA3E0FF901357
:10BD2F00D3EEF0A3EFF09013D9E4F0A3E4F07B008F
:10BD3F007A007900901338E4F0A3E4F07F0012B298
:02BD4F00CC2204
:10B875009013D6E0FBA3E0FAA3E0F9EA494B605D3B
:10B885009013DBE0FEA3E0FFEF4E60519013D5E08F
:10B89500FFEF3395E0FE9013D9E0FCA3E0FD901394
:10B8A500DBE0FAA3E0FBC002C0039013D6E0FBA3E4
:10B8B500E0FAA3E0F99011D2EBF0A3EAF0A3E9F0E6
:10B8C500D003D002126BC09013DBE4F0A3E4F09038
:0EB8D50013DAE004F070069013D9E004F022BC
:10AD99009016D1EFF09016D2EDF09013D6E0FBA308
:10ADA900E0FAA3E0F9EA494B60709016D1E0FF9010
:10ADB90013D5E0FEEE6F600F9013DBE0FEA3E0FF1A
:10ADC900EF4E600312B8759016D1E0FF9013D5EFDE
:10ADD900F09016D2E0FF9013D6E0FBA3E0FAA3E0CF
:10ADE900F99013DBE0FCA3E0FD8D828C83EF120761
:10ADF900F39013DCE004F070069013DBE004F090AC
:10AE090013D3E0FEA3E0FF9013DBE0FCA3E0FDED2C
:0BAE1900B50707ECB5060312B8752260
:10B2CC00901334EFF0901335EBF0A3EAF0A3E9F010
:10B2DC00901335E0FBA3E0FAA3E0F990133CEBF0FC
:10B2EC00A3EAF0A3E9F090133AE4F0A3E4F090138E
:10B2FC0038E0FEA3E0FF90133AE0FCA3E0FDC3EDC1
:10B30C009FEE6480F8EC6480985033901334E0FF27
:10B31C0090133CE0FBA3E0FAA3E0F990133AE0FCB5
:10B32C00A3E0FD8D828C8312075FFD12AD99901303
:0EB33C003BE004F0700690133AE004F080B09D
:01B34A0022E0
:08931B004116D5004116D600F1
:10D466009016D3EFF09016D4EDF09016D3E0FF901F
:0FD4760016D5EFF09016D4E0FF9016D6EFF02207
:10BBC300901435EEF0A3EFF0901437ECF0A3EDF002
:0BBBD300901439EBF0A3EAF0A3E9F0B6
:10BBDE00901435E0FEA3E0FF901437E0FCA3E0FDE7
:10BBEE00901439E0FBA3E0FAA3E0F9125C72901412
:10BBFE003CEEF0A3EFF09016D5E0FF901439E0FB89
:10BC0E00A3E0FAA3E0F990143CE0FCA3E0FD90154C
:09BC1E00C2ECF0A3EDF012C67AAD
:01BC270022FA
:105FB500900155E4F0900157E4F0A3E4F09016D574
:105FC500E0FF7B017A01793E9015BCE4F0A37409EA
:105FD500F012C4E0EF70030261417BFF7A0079366D
:105FE500C003C002C0017B017A01793EA801AC0261
:105FF500AD03D001D002D0037E007F04120ECAEF9C
:1060050070047F0180027F00900156EFF0900156E9
:10601500E0FF900142E0FEEE64016009900142E07C
:10602500FEEEB402047E0180027E00EF5EFF900169
:1060350056EFF0900146E0FF7E00900153EEF0A38D
:10604500EFF0900156E0FF900153E0FCA3E0FDC3A3
:10605500E49DEC6480F8E46480985017900153E067
:10606500FCA3E0FDD3ED940AEC6480948050047E9B
:106075000180027E00EF5EFF900156EFF090015621
:10608500E0FFEF70030261279016D5E0FF7B017AF0
:1060950001793E900153E0FCA3E0FDED240BFDECFE
:1060A5003400FC9015BCECF0A3EDF012C4E0EF70E9
:1060B50003026141900156E0FFC0077B017A017937
:1060C5003E900153E0FEA3E0FFEF240BFDEE34000C
:1060D500FC12CA17AE07D007EF5EFF900156EFF02E
:1060E5009016D5E0FF900153E0FCA3E0FDED240BF5
:1060F500FDEC3400FC12CDFF900156E0FFEF60226D
:10610500900155E0FFC0077B017A01793E1285AE0B
:10611500AE07D007EF4EFF900155EFF0801E8002CD
:10612500801A900156E0FFEF6003025FC29016D51A
:10613500E0FF7D017C0012CDFF025FC2900155E0BA
:01614500FF5A
:016146002236
:0BCC3B00901564EBF0A3EAF0A3E9F011
:10CC4600901564E0FBA3E0FAA3E0F9901567EBF01A
:10CC5600A3EAF0A3E9F0901567E0FBA3E0FAA3E0EE
:0DCC6600F975820875830012075FFF7E00DC
:01CC7300229E
:10D3A100901681EBF0A3EAF0A3E9F0901681E0FB7F
:10D3B100A3E0FAA3E0F912CC3BEF240BFFEE34001B
:02D3C100FE224A
:0BCC740090156AEBF0A3EAF0A3E9F0D2
:10CC7F0090156AE0FBA3E0FAA3E0F990156DEBF0D5
:10CC8F00A3EAF0A3E9F090156DE0FBA3E0FAA3E0AF
:0DCC9F00F97582097583001208F3FFAEF0ED
:01CCAC002265
:0BCE6E00901570EBF0A3EAF0A3E9F0D0
:10CE7900901570E0FBA3E0FAA3E0F9901573EBF0CD
:10CE8900A3EAF0A3E9F0901573E0FBA3E0FAA3E0AD
:0BCE9900F975820B75830012075FFF24
:01CEA400226B
:0BCCAD00901576EBF0A3EAF0A3E9F08D
:10CCB800901576E0FBA3E0FAA3E0F9901579EBF084
:10CCC800A3EAF0A3E9F0901579E0FBA3E0FAA3E06A
:0DCCD800F975820C7583001208F3FFAEF0B1
:01CCE500222C
:107BCB0090133FEBF0A3EAF0A3E9F0901342ECF033
:037BDB00A3EDF027
:107BDE00901344E4F090133FE0FBA3E0FAA3E0F926
:107BEE00901345EBF0A3EAF0A3E9F0901342E0FE08
:107BFE00A3E0FFD3740B9FEE6480F8E4648098409A
:107C0E0003027CE77BFF7A007936C003C002C00115
:107C1E00901345E0FBA3E0FAA3E0F9A801AC02AD96
:107C2E0003D001D002D0037E007F04120ECAEF7083
:107C3E00047F0180027F00901344EFF0901345E023
:107C4E00FBA3E0FAA3E0F975820875830012075FC3
:107C5E00FF7E00901348EEF0A3EFF0901344E0FF88
:107C6E00901348E0FCA3E0FDD3E49DEC6480F8E4BF
:107C7E006480985029901348E0FCA3E0FDED240B9E
:107C8E00FDEC3400FC901342E0FAA3E0FBD3ED9B35
:107C9E00EA6480F8EC64809850047E0180027E00D5
:107CAE00EF5EFF901344EFF0901344E0FFC0079097
:107CBE001345E0FBA3E0FAA3E0F9901348E0FEA31E
:107CCE00E0FFEF240BFDEE3400FC12CA17AE07D016
:0E7CDE0007EF5EFF901344EFF0901344E0FFB9
:017CEC002275
:106BC0009011CCEEF0A3EFF09011CEECF0A3EDF02D
:086BD0009011D0EAF0A3EBF0F4
:106BD8009011D2E0FBA3E0FAA3E0F99011DFEBF00B
:106BE800A3EAF0A3E9F09011E2E4F0A3E4F0901135
:106BF800D57453F09011D67454F09011D77452F0A4
:106C08009011D87445F09011CCE0FEA3E0FFEEFFA0
:106C18003395E0FE9011D9EFF09011CCE0FEA3E09F
:106C2800FF9011DAEFF09011CEE0FEA3E0FFEEFF47
:106C38003395E0FE9011DBEFF09011CEE0FEA3E07B
:106C4800FF9011DCEFF09011D0E0FEA3E0FFEEFF23
:106C58003395E0FE9011DDEFF09011D0E0FEA3E057
:106C6800FF9011DEEFF07B017A1179D59011E2E007
:106C7800FEA3E0FF9012F6EEF0A3EFF07D0A7C0091
:106C880012A8699011E2EEF0A3EFF09016D5E0FF9C
:106C98007B017A1179D59015C2E4F0A3740AF01239
:106CA800C67A9011DFE0FBA3E0FAA3E0F99011D0D7
:106CB800E0FCA3E0FD9011E2E0FEA3E0FF9012F6F5
:106CC800EEF0A3EFF012A8699011E2EEF0A3EFF056
:106CD8009016D5E0FF9011DFE0FBA3E0FAA3E0F9FE
:106CE8009011D0E0FCA3E0FD9015C2ECF0A3EDF00C
:106CF80012C67A9011E2E0FEA3E0FF12CBC6901113
:106D0800E2EEF0A3EFF09016D5E0FF7B017A11795F
:0D6D1800E29015C2E4F0A37402F012C67AF6
:016D2500224B
:040036005844415495
:105C720090134AEEF0A3EFF090134CECF0A3EDF08A
:0B5C820090134EEBF0A3EAF0A3E9F052
:105C8D00901351E4F0A3E4F07BFF7A007936C00362
:105C9D00C002C00190134EE0FBA3E0FAA3E0F9A807
:105CAD0001AC02AD03D001D002D0037E007F0412FF
:105CBD0006FE90134EE0FBA3E0FAA3E0F975820413
:105CCD00758300E41207F39016D6E0FF90134EE0B3
:105CDD00FBA3E0FAA3E0F9758205758300EF1207C7
:105CED00F390134AE0FEA3E0FFEEFF3395E0FE9044
:105CFD00134EE0FBA3E0FAA3E0F97582067583006D
:105D0D00EF1207F390134AE0FEA3E0FF90134EE06D
:105D1D00FBA3E0FAA3E0F9758207758300EF120784
:105D2D00F390134CE0FEA3E0FF90134EE0FBA3E0D5
:105D3D00FAA3E0F9758208758300EF1207F390134B
:105D4D004CE0FEA3E0FF90134AE0FCA3E0FD9013AE
:105D5D0051E0FAA3E0FBEB2DFDEA3CFCAA04A905FA
:105D6D007B01C003C002C00190134EE0FBA3E0FA1B
:105D7D00A3E0F9E92409F9EA3400FAA801AC02AD6F
:105D8D0003D001D002D0031206FE90134EE0FBA308
:105D9D00E0FAA3E0F990134CE0FEA3E0FFEF240935
:105DAD00FDEE3400FC9012F6E4F0A3E4F012A869C5
:105DBD0012CBC6901353EEF0A3EFF07B017A13795B
:105DCD0053C003C002C00190134EE0FBA3E0FAA341
:105DDD00E0F990134CE0FEA3E0FFEF2409FFEE3451
:105DED0000FEE92FF9EA3EFAA801AC02AD03D0019D
:105DFD00D002D0037E007F021206FE90134CE0FE0F
:0B5E0D00A3E0FFEF240BFFEE3400FECB
:015E18002267
:0B5572009013DDEBF0A3EAF0A3E9F0DA
:10557D009013E5E4F0A3E4F07BFF7A007936C003E5
:10558D00C002C0019013DDE0FBA3E0FAA3E0F9A88F
:10559D0001AC02AD03D001D002D0037E007F041216
:1055AD000ECAEF70047F0180027F009013E0EFF0D0
:1055BD009013E0E0FF9013DDE0FBA3E0FAA3E0F928
:1055CD0075820475830012075FFEEEB401047E013F
:1055DD0080027E00EF5EFF9013E0EFF09013E0E0AD
:1055ED00FF9013DDE0FBA3E0FAA3E0F975820575EA
:1055FD00830012075FFE9016D6E0FDEEB505047E22
:10560D000180027E00EF5EFF9013E0EFF09013DD5E
:10561D00E0FBA3E0FAA3E0F975820675830012089A
:10562D00F3FFAEF09013E1EEF0A3EFF09013DDE099
:10563D00FBA3E0FAA3E0F975820875830012075FFA
:10564D00FF7E009013E3EEF0A3EFF09013E0E0FF88
:10565D009013E1E0FCA3E0FDED4C602C9013E3E032
:10566D00FCA3E0FDC3E49DEC6480F8E464809850F5
:10567D00179013E3E0FCA3E0FDD3ED940AEC6480F6
:10568D00948050047E0180027E00EF5EFF9013E057
:10569D00EFF09013E0E0FFEF70030257409013E03E
:1056AD00E0FFC0079013DDE0FBA3E0FAA3E0F99063
:1056BD0013E3E0FEA3E0FFEF240BFDEE3400FC123C
:1056CD00CA17AE07D007EF5EFF9013E0EFF090130F
:1056DD00E0E0FFEF605DC2AFC2AF9013E3E0FEA369
:1056ED00E0FF9013DDE0FBA3E0FAA3E0F9E9240964
:1056FD00F9EA3400FAC003C002C0019013E1E0FCE6
:10570D00A3E0FD9013E5E0FAA3E0FBEB2DFDEA3CF1
:10571D00FCAA04A9057B01A801AC02AD03D001D000
:10572D0002D0031206FED2AF9013E1E0FEA3E0FF1C
:08573D0012D74D9013E0E0FFCC
:015745002241
:10D713007E007F097D007B017A077926120EEE22B7
:0B80430090143EEBF0A3EAF0A3E9F07C
:10804E0090143EE0FBA3E0FAA3E0F9901441EBF0AC
:10805E00A3EAF0A3E9F09005F6E0FFEFB401037F89
:10806E0001229014447401F0901444E0FF901441E6
:10807E00E0FBA3E0FAA3E0F9758205758300120711
:10808E005FFE9016D6E0FDEEB505047E0180027E01
:10809E0000EF5EFF901444EFF0901441E0FBA3E07C
:1080AE00FAA3E0F97582067583001208F3FFAEF0AD
:1080BE00901445EEF0A3EFF0901446E024DAF09021
:1080CE001445E034F8F0901444E0FF901445E0FCC1
:1080DE00A3E0FDD3E49DEC6480F8E464809850172F
:1080EE00901445E0FCA3E0FDC3ED9402EC64809493
:1080FE008050047E0180027E00EF5EFF901444EFFC
:10810E00F0901444E0FF901441E0FBA3E0FAA3E0EA
:10811E00F975820875830012075FFEEEFD7C0090F4
:10812E001445E0FAA3E0FBC374059BFBE49AFAD373
:10813E00ED9BEA6480F8EC64809850047E01800226
:0F814E007E00EF5EFF901444EFF0901444E0FFCA
:01815D0022FF
:10724700900726E0FFEF120CBE726000726A0173AE
:107257002202737403000073877B017A0579F412A5
:10726700D1D8227B017A077916C003C002C0017BFF
:10727700017A07792BA801AC02AD03D001D002D067
:10728700037E007F041206FE90072BE0FCA3E0FDBF
:10729700A3E0FEA3E0FFEF64CAFFEE6451FEED64D6
:1072A700A5FDEC64C1FC90072B120BF27B017A075A
:1072B700792B9012F6741CF0A374EDF07D047C001A
:1072C70012A86912CBC690072BEEF0A3EFF07B0153
:1072D7007A07792B9012F674A1F0A374A5F07D04B8
:1072E7007C0012A86912CBC690072DEEF0A3EFF031
:1072F70090072BE0FCA3E0FDA3E0FEA3E0FFEF6413
:1073070001FFEE6400FEED6400FDEC6400FC9007F5
:1073170027120BF29007267402F02290072BE0FC4D
:10732700A3E0FDA3E0FEA3E0FF900727E0F8A3E0BA
:10733700F9A3E0FAA3E0FBC3120AF070439005F645
:10734700E0FFEF7014900615E0FCA3E0FDA3E0FE5C
:10735700A3E0FF90061A120BF27B017A0579F490ED
:1073670005F5E0FD12BF8E900726E4F0227B017A37
:107377000579F412D3E490061A120BFE0000000000
:0173870022E3
:100FD5009016F7E4F09016F7E0FFEF3395E0FEEF9B
:100FE5007802C333CE33CED8F9FF74002FF582745F
:100FF500003EF583740AF09016F7E0FFEF3395E0B5
:10100500FEEF7802C333CE33CED8F9FF74012FF546
:101015008274003EF5837401F0A3745EF09016F7B8
:10102500E0FFEF3395E0FEEF7802C333CE33CED841
:10103500F9FF74032FF58274003EF58374D8F090A0
:1010450016F7E004F09016F7E0FFEF3395E0FEEFBA
:101055007802C333CE33CED8F9FF74002FF58274EE
:10106500003EF583740AF09016F7E0FFEF3395E044
:10107500FEEF7802C333CE33CED8F9FF74012FF5D6
:101085008274003EF5837402F0A37436F09016F76F
:10109500E0FFEF3395E0FEEF7802C333CE33CED8D1
:1010A500F9FF74032FF58274003EF58374D8F09030
:1010B50016F7E004F09016F7E0FFEF3395E0FEEF4A
:1010C5007802C333CE33CED8F9FF74002FF582747E
:1010D500003EF583740AF09016F7E0FFEF3395E0D4
:1010E500FEEF7802C333CE33CED8F9FF74012FF566
:1010F5008274003EF5837403F0A3740EF09016F726
:10110500E0FFEF3395E0FEEF7802C333CE33CED860
:10111500F9FF74032FF58274003EF58374D8F090BF
:1011250016F7E004F09016F7E0FFEF3395E0FEEFD9
:101135007802C333CE33CED8F9FF74002FF582740D
:10114500003EF583740AF09016F7E0FFEF3395E063
:10115500FEEF7802C333CE33CED8F9FF74012FF5F5
:101165008274003EF5837403F0A374E6F09016F7DD
:10117500E0FFEF3395E0FEEF7802C333CE33CED8F0
:10118500F9FF74032FF58274003EF58374D8F0904F
:1011950016F7E004F09016F7E0FFEF3395E0FEEF69
:1011A5007802C333CE33CED8F9FF74002FF582749D
:1011B500003EF583740AF09016F7E0FFEF3395E0F3
:1011C500FEEF7802C333CE33CED8F9FF74012FF585
:1011D5008274003EF5837404F0A374E2F09016F770
:1011E500E0FFEF3395E0FEEF7802C333CE33CED880
:1011F500F9FF74032FF58274003EF5837478F0903F
:1012050016F7E004F09016F7E0FFEF3395E0FEEFF8
:101215007802C333CE33CED8F9FF74002FF582742C
:10122500003EF583740AF09016F7E0FFEF3395E082
:10123500FEEF7802C333CE33CED8F9FF74012FF514
:101245008274003EF5837405F0A37478F09016F768
:10125500E0FFEF3395E0FEEF7802C333CE33CED80F
:10126500F9FF74032FF58274003EF58374D9F0906D
:1012750016F7E004F09016F7E0FFEF3395E0FEEF88
:101285007802C333CE33CED8F9FF74002FF58274BC
:10129500003EF583740AF09016F7E0FFEF3395E012
:1012A500FEEF7802C333CE33CED8F9FF74012FF5A4
:1012B5008274003EF5837406F0A374A4F09016F7CB
:1012C500E0FFEF3395E0FEEF7802C333CE33CED89F
:1012D500F9FF74032FF58274003EF5837463F09073
:1012E50016F7E004F09016F7E0FFEF3395E0FEEF18
:1012F5007802C333CE33CED8F9FF74002FF582744C
:10130500003EF583740CF09016F7E0FFEF3395E09F
:10131500FEEF7802C333CE33CED8F9FF74012FF533
:101325008274003EF5837402F0A37426F09016F7DC
:10133500E0FFEF3395E0FEEF7802C333CE33CED82E
:10134500F9FF74032FF58274003EF583746BF090FA
:1013550016F7E004F09016F7E0FFEF3395E0FEEFA7
:101365007802C333CE33CED8F9FF74002FF58274DB
:10137500003EF583740CF09016F7E0FFEF3395E02F
:10138500FEEF7802C333CE33CED8F9FF74012FF5C3
:101395008274003EF583E4F0A37464F09016F7E0E0
:1013A500FFEF3395E0FEEF7802C333CE33CED8F9A5
:1013B500FF74032FF58274003EF5837499F090163F
:1013C500F7E004F09016F7E0FFEF3395E0FEEF78D5
:1013D50002C333CE33CED8F9FF74002FF5827400E3
:1013E5003EF583740CF09016F7E0FFEF3395E0FEC1
:1013F500EF7802C333CE33CED8F9FF74012FF582CF
:1014050074003EF5837402F0A374BCF09016F7E007
:10141500FFEF3395E0FEEF7802C333CE33CED8F934
:10142500FF74032FF58274003EF58374AAF09016BD
:10143500F7E004F09016F7E0FFEF3395E0FEEF7864
:1014450002C333CE33CED8F9FF74002FF582740072
:101455003EF583740CF09016F7E0FFEF3395E0FE50
:10146500EF7802C333CE33CED8F9FF74012FF5825E
:1014750074003EF5837403F0A37484F09016F7E0CE
:10148500FFEF3395E0FEEF7802C333CE33CED8F9C4
:10149500FF74032FF58274003EF58374A3F0901654
:1014A500F7E004F09016F7E0FFEF3395E0FEEF78F4
:1014B50002C333CE33CED8F9FF74002FF582740002
:1014C5003EF583740CF09016F7E0FFEF3395E0FEE0
:1014D500EF7802C333CE33CED8F9FF74012FF582EE
:1014E50074003EF5837404F0A3744CF09016F7E095
:1014F500FFEF3395E0FEEF7802C333CE33CED8F954
:10150500FF74032FF58274003EF5837457F090162F
:10151500F7E004F09016F7E0FFEF3395E0FEEF7883
:1015250002C333CE33CED8F9FF74002FF582740091
:101535003EF5837408F09016F7E0FFEF3395E0FE73
:10154500EF7802C333CE33CED8F9FF74012FF5827D
:1015550074003EF583E4F0A37464F09016F7E0FFA1
:10156500EF3395E0FEEF7802C333CE33CED8F9FFE3
:1015750074032FF58274003EF58374B5F09016F769
:10158500E004F09016F7E0FFEF3395E0FEEF780208
:10159500C333CE33CED8F9FF74002FF58274003EE5
:1015A500F5837408F09016F7E0FFEF3395E0FEEF52
:1015B5007802C333CE33CED8F9FF74012FF5827488
:1015C500003EF5837401F0A3742CF09016F7E0FF4C
:1015D500EF3395E0FEEF7802C333CE33CED8F9FF73
:1015E50074032FF58274003EF5837473F09016F73B
:1015F500E004F09016F7E0FFEF3395E0FEEF780298
:10160500C333CE33CED8F9FF74002FF58274003E74
:10161500F5837408F09016F7E0FFEF3395E0FEEFE1
:101625007802C333CE33CED8F9FF74012FF5827417
:10163500003EF5837409F0A37448F09016F7E0FFB7
:10164500EF3395E0FEEF7802C333CE33CED8F9FF02
:1016550074032FF58274003EF5837424F09016F719
:10166500E004F09016F7E0FFEF3395E0FEEF780227
:10167500C333CE33CED8F9FF74002FF58274003E04
:10168500F5837408F09016F7E0FFEF3395E0FEEF71
:101695007802C333CE33CED8F9FF74012FF58274A7
:1016A500003EF5837409F0A374D8F09016F7E0FFB7
:1016B500EF3395E0FEEF7802C333CE33CED8F9FF92
:1016C50074032FF58274003EF5837478F09016F755
:1016D500E004F09016F7E0FFEF3395E0FEEF7802B7
:1016E500C333CE33CED8F9FF74002FF58274003E94
:1016F500F5837408F09016F7E0FFEF3395E0FEEF01
:101705007802C333CE33CED8F9FF74012FF5827436
:10171500003EF5837405F0A37469F09016F7E0FFB9
:10172500EF3395E0FEEF7802C333CE33CED8F9FF21
:1017350074032FF58274003EF58374E1F09016F77B
:10174500E004F09016F7E0FFEF3395E0FEEF780246
:10175500C333CE33CED8F9FF74002FF58274003E23
:10176500F5837408F09016F7E0FFEF3395E0FEEF90
:101775007802C333CE33CED8F9FF74012FF58274C6
:10178500003EF5837401F0A374F4F09016F7E0FFC2
:10179500EF3395E0FEEF7802C333CE33CED8F9FFB1
:1017A50074032FF58274003EF5837465F09016F787
:1017B500E004F09016F7E0FFEF3395E0FEEF7802D6
:1017C500C333CE33CED8F9FF74002FF58274003EB3
:1017D500F5837408F09016F7E0FFEF3395E0FEEF20
:1017E5007802C333CE33CED8F9FF74012FF5827456
:1017F500003EF5837402F0A37462F09016F7E0FFE3
:10180500EF3395E0FEEF7802C333CE33CED8F9FF40
:1018150074032FF58274003EF58374B4F09016F7C7
:10182500E004F09016F7E0FFEF3395E0FEEF780265
:10183500C333CE33CED8F9FF74002FF58274003E42
:10184500F5837408F09016F7E0FFEF3395E0FEEFAF
:101855007802C333CE33CED8F9FF74012FF58274E5
:10186500003EF5837403F0A37420F09016F7E0FFB3
:10187500EF3395E0FEEF7802C333CE33CED8F9FFD0
:1018850074032FF58274003EF5837487F09016F784
:10189500E004F09016F7E0FFEF3395E0FEEF7802F5
:1018A500C333CE33CED8F9FF74002FF58274003ED2
:1018B500F5837408F09016F7E0FFEF3395E0FEEF3F
:1018C5007802C333CE33CED8F9FF74012FF5827475
:1018D500003EF5837403F0A374ACF09016F7E0FFB7
:1018E500EF3395E0FEEF7802C333CE33CED8F9FF60
:1018F50074032FF58274003EF5837447F09016F754
:10190500E004F09016F7E0FFEF3395E0FEEF780284
:10191500C333CE33CED8F9FF74002FF58274003E61
:10192500F5837408F09016F7E0FFEF3395E0FEEFCE
:101935007802C333CE33CED8F9FF74012FF5827404
:10194500003EF5837403F0A374FCF09016F7E0FFF6
:10195500EF3395E0FEEF7802C333CE33CED8F9FFEF
:1019650074032FF58274003EF5837490F09016F79A
:10197500E004F09016F7E0FFEF3395E0FEEF780214
:10198500C333CE33CED8F9FF74002FF58274003EF1
:10199500F5837408F09016F7E0FFEF3395E0FEEF5E
:1019A5007802C333CE33CED8F9FF74012FF5827494
:1019B500003EF5837404F0A374B0F09016F7E0FFD1
:1019C500EF3395E0FEEF7802C333CE33CED8F9FF7F
:1019D50074032FF58274003EF5837430F09016F78A
:1019E500E004F09016F7E0FFEF3395E0FEEF7802A4
:1019F500C333CE33CED8F9FF74002FF58274003E81
:101A0500F5837408F09016F7E0FFEF3395E0FEEFED
:101A15007802C333CE33CED8F9FF74012FF5827423
:101A2500003EF5837404F0A374E2F09016F7E0FF2E
:101A3500EF3395E0FEEF7802C333CE33CED8F9FF0E
:101A450074032FF58274003EF5837462F09016F7E7
:101A5500E004F07E007F0F7D007B017A0579B812E6
:101A65000EEE9005C7120BFE000300009005CB1289
:101A75000BFE000200009005CF7418F09005D0749D
:101A850001F07B017A0679387D0A12BFEC90063B9E
:101A9500E4F090063C120BFE000000009006407436
:101AA500FFF0900641120BFE00FFFFFF9006451266
:101AB5000BFE00000000900649E4F090064C120B66
:101AC500FE0100000090064CE0FCA3E0FDA3E0FE53
:101AD500A3E0FF7BFF7AFF79FF78FFEF2BFFEE3A5C
:101AE500FEED39FDEC38FC90064C120BF2900650D9
:101AF5007401F090064AE4F0A3E4F09006AE120BF0
:101B0500FE000000009006B27418F09006B3120BA8
:101B1500FE000000009006BFE4F0A374FAF0900602
:101B2500C1E4F0A3E4F09006C3E4F0A3E4F090066A
:101B3500C5E4F09006B7120BFE000100009006BB4D
:101B4500E4F0A3745AF09006BD7405F09006BEE467
:101B5500F09006D5E4F090071674FFF0A374FFF03B
:101B65009005D1120BFE003300009005D57401F0ED
:101B75009005D6E4F09005D77401F09005D8E4F00F
:101B8500A3E4F09005DAE4F0A3E4F07E007F0A7D9B
:101B9500FF7B017A0579DC120EEE7E007F0A7DFF60
:101BA5007B017A0579E6120EEE7E007F047D007BCF
:101BB500017A0579F7120EEE9005F0E4F0A3E4F052
:101BC5009006D67402F07E007F0D7D007B017A06BB
:101BD5007912120EEE7B017A0679127D1E12C04A29
:101BE500900615120BFE000014709005F574B4F004
:101BF5007B017A0579F412D3E47B017A0579FB7DC3
:101C05003C12C04A7B017A0579FE7D1412D1AD9054
:101C1500061F74FFF09005F2E4F0A3E4F090072F9F
:071C2500E4F09006FDE4F07D
:011C2C002295
:10CC01007E007F187D007B017A0679E5120EEE9099
:10CC110006F67404F0A374B0F09006F8E4F0A3747F
:10CC210032F09006FA7419F09006FB7410F0900639
:0ACC3100FCE4F09000667404F022A9
:10BC28009016D7E4F09016D7E0FFEFC394FA50537C
:10BC38007B017A1679D89015BCE4F0A37401F07FE3
:10BC48000012C4E0EF603C7D017C007F0012CDFF54
:10BC58009006EAE0FCA3E0FDA3E0FEA3E0FF7B0181
:10BC68007A0079007800EF2BFFEE3AFEED39FDEC13
:10BC780038FC9006EA120BF28001229016D7E004F5
:03BC8800F080A2A7
:01BC8B002296
:10CFE100900065E004F07006900064E004F09000A9
:10CFF10067E4F0A3E4F09006EA120BFE00000000E3
:10D001009006EEE4F0A3E4F07B017A0679F212D205
:02D01100792282
:10D0CC009016F8EFF07B017A0679FB9015C2E4F02C
:10D0DC00A37401F07F0012C67A7B017A1679F8905E
:0ED0EC0015C2E4F0A37401F07F0012C67A2290
:10A336007DD57C007F0012CDFF9006EAE0FCA3E00D
:10A34600FDA3E0FEA3E0FFEF24D5FFEE3400FEED13
:10A356003400FDEC3400FC9006EA120BF212BC2825
:10A366007B017A0079697DD57C0012CA1790168424
:10A37600EFF0901684E0FFEF604F7B017A09790CCD
:10A386007DD87C007F647E00125C72901685EEF0AC
:10A39600A3EFF0C2AC7B017A09790C901685E0FC3C
:10A3A600A3E0FD1290E4D2AC7B017A09790C9016F9
:10A3B60085E0FCA3E0FD12CB8A900068E004F07013
:10A3C60006900067E004F0800E9006EFE004F0705F
:0CA3D600069006EEE004F0901684E0FF14
:01A3E2002258
:105E19009006FCE0FFEF120CBE5FB4005E3F015E2E
:105E290046025E5F035E8E045F3F055F87065F8EF5
:105E39000700005FAF229005347403F02290053407
:105E4900E4F07B017A0679E57D407C1F12C106905A
:105E590006FC7403F0227B017A0679E5127388EF58
:105E69007003025FB49005F0E0FEA3E0FFEF30E4B9
:105E79000D12CFE112BC289006FC7404F0229006A2
:105E8900FC7406F0227B017A0079699015BCE4F074
