:05678700420283097EBF
:0683B4009009C5120AFE4B
:1083BA009009CBE584F075840075E84075D107759E
:1083CA00BA0075BB0F7BA07A25792678009009C57B
:1083DA00120AE6128C7C7B027A0079007800128CF1
:1083EA007CEF24FFFFEE34FFFEED34FFFDEC34FF9B
:1083FA00FC7803120AB98FBCD2EF9009CBE0FF8F49
:10840A00849009C9E0FEA3E0FF900283EEF0A3EF97
:01841A00F071
:01841B00223E
:058DC30090001BEFF021
:108DC80090001CE584F075840090001BE0FF8FBBC9
:108DD8007F647E00128F6EC2EDD2EC30EDFD900004
:108DE8001DE5BFF0A3E5BEF0C2ED90001CE0FF8FCB
:098DF8008490001DE0FEA3E0FFE1
:018E0100224E
:0A716B00900A02EFF0900A03EDF025
:10717500900A05120B0A00000000900A05120B0A7E
:1071850000000000900A04E4F0900A03E0FF900A72
:1071950004E0FEEEC39F5039900A05120AE6C004CA
:1071A500C005C006C007900A02E0FF128DC3AB07F9
:1071B500AA06EA3395E0F9F8D007D006D005D00441
:1071C500120938900A05120AFE900A04E004F080BC
:1071D500B8900A03E0FCE41203C7C004C005C0066A
:1071E500C007900A05120AE6EC1203BDD003D002CF
:1071F500D001D0001202A7C004C005C006C0079088
:107205000283E0FCA3E0FDEC1203C2A804A905AAD1
:1072150006AB07D007D006D005D00412019E7B002F
:097225007A00798078451202A775
:01722E00223D
:1095110090020BE584F07584017588007F147E004C
:10952100128F6E75890353E6CF90020BE0FF8F8493
:019531002217
:109532009009C3E584F07584027588007F147E006B
:10954200128F6E75890353E63F9009C3E0FF8F8443
:0195520022F6
:10961C009009CCE584F0758400438805C2A8C2AAE1
:07962C009009CCE0FF8F84E0
:019633002214
:108EBF00900292E584F075840043EF06900A09E46E
:108ECF00F0900293E5EFF0900293E0FFEF647F6084
:108EDF0019900293E0FFEF64FF600F900293E0FFA1
:0A8EEF00EF30E206900A097401F06A
:018EF9002256
:106D550090025BE584F075840F758C60438C079019
:106D6500025DE4F0A3E4F090025DE0FEA3E0FFC362
:106D7500EF94B8EE940B500D0090025DE475F001B0
:106D850012083B80E290025DE4F0A3E4F090025D1E
:106D9500E0FEA3E0FFC3EF94B8EE940B5028E58C1A
:106DA5005480FF90025CEFF090025CE0FFEF600A18
:106DB50090025D740BF0A374B8F090025DE475F079
:106DC5000112083B80C790025CE0FFEF60537597A6
:106DD5000175890453A1DF75840075B71075840F9B
:106DE50043A120438901758D04758F3F758E0790EA
:106DF500025DE4F0A3E4F090025DE0FEA3E0FFC3D2
:106E0500EF940FEE9400500C90025DE475F00112C2
:106E1500083B80E3438902E58930E4FB75970280EE
:106E25000A90025BE0FF8F847F012290025BE0FF06
:046E35008F847F00C7
:016E39002236
:10878F0090150CE584F075840F758A8375890075D3
:10879F00840075B71075840F438901758D02758F2D
:1087AF0037758E0390150DE4F0A374FFF090150D3F
:1087BF00E0FEA3E0FFEF4E600D90150D74FF75F016
:1087CF00FF12083B80E7438902E58930E4FB759788
:0887DF000290150CE0FF8F84ED
:0187E700226F
:10000300128EBF900A09E0FFEF7008126D55900A37
:1000130009EFF0900A09E0FFEFB4010312878F2282
:06979500900A09E0FF222A
:1095E900900A09E0FFEF70097F007EA07D4E7C02A2
:0A95F900227FB07EC27D307C02228A
:10678C0043133E00000042133A000042133600004F
:10679C0041133C00431341000000421334000041FC
:0367AC00133D009A
:0E8FDF009014A5120B819014A8ECF0A3EDF0F5
:108FED00A2AF920FC2AFC2AF9014A5120B61901336
:108FFD003E120B819014A8E0FEA3E0FF90133AEE11
:08900D00F0A3EFF0A20F92AFF7
:019015002238
:109158009014AA120B819014ADECF0A3EDF09014CA
:10916800AA120B61901341120B819014ADE0FEA37B
:10917800E0FF901334EEF0A3EFF0901338E4F0A37F
:03918800E4F022EE
:10968C0090150F120B8190150F120B617DFF7C7FD3
:04969C0012915822AD
:058E02009001ECEFF00F
:108E07009001F1E584F075840075C0077B007AD482
:108E1700793078009001ED120AE6128C7CC3740158
:108E27009FF5CF9001ECE0FF8FC343C04043E602BC
:098E3700C2C39001F1E0FF8F8439
:018E4000220F
:03003B000260CD93
:1060CD00C0E0C0F0C083C082C0D075D000C000C099
:0D60DD0001C002C003C004C005C006C0071A
:1060EA00AFC1EF120B8A61216061D16861217061D1
:1060FA00D178612F80617B88612F90617B98617F65
:10610A00A06187A861D1B06187B861E3C061E3C8C3
:10611A0061E3D0000061D7901336E4F0A3E4F012F3
:10612A0097650261E3900A13E5C2F090133AE0FE24
:10613A00A3E0FF901336E0FCA3E0FDC3ED9FEE64FD
:10614A0080F8EC648098501B900A13E0FF90133E8D
:10615A00120B61901336E0FCA3E0FD8D828C83EF75
:10616A0012077C901336E475F00112083BD2C28004
:10617A0068D2C2806490133C7401F0805C9013343E
:10618A00E0FEA3E0FF901338E0FCA3E0FDC3ED9F1F
:10619A00EE6480F8EC6480985024901341120B61ED
:1061AA00901338E0FEA3E0FF8F828E8312073DFF33
:1061BA008FC2901338E475F00112083B801B75C238
:1061CA0000801680148012D2C5800E800C53C0BF86
:0B61DA0043C040C2C5C2C4C2C2C2C361
:1061E500D007D006D005D004D003D002D001D0000E
:0B61F500D0D0D082D083D0F0D0E032B8
:1096030090133CE0FFEF600E90133CE4F0901336B0
:09961300E0FEA3E0FF227F00222B
:03007300029016E2
:0D901600C0E0C083C082C0D075D000C0078C
:10902300901564E584F075840053C0BF43C040903D
:0E9033001564E0FF8F8490133DE004F0C2CF7F
:0B904100D007D0D0D082D083D0E03226
:0967AF004115170042151503E81D
:068D4300900A0C120AFE6A
:108D4900900A12E584F0758400759A7075F80D7BA8
:108D5900407A42790F7800900A0C120AE6128C7C4C
:108D69008F9D900A12E0FF8F84900A10E0FEA3E025
:098D7900FF901515EEF0A3EFF0D8
:018D820022CE
:06979B00901517E0FF220B
:05889800901512EFF045
:10889D00901513E4F0A3E4F0901512E0FF8F9B20E8
:1088AD00FF26901513E475F00112083BAFF0FE9012
:1088BD001515E0FCA3E0FDC3ED9FEE6480F8EC64BC
:1088CD00809850DB800280D7901512E59BF0A2FFB7
:1088DD00E433FF901517E02FF0C2FF901512E0FF63
:0188ED002268
:0E7958009013C9120B819013CCECF0A3EDF04C
:107966009013C9120B619013D0120B819013D3E5BB
:1079760084F07584009013CEE4F0A3E4F09013CC69
:10798600E0FEA3E0FF9013CEE0FCA3E0FDC3ED9F75
:10799600EE6480F8EC648098503B9013D0120B6133
:1079A6009013CEE0FEA3E0FF8F828E8312073DFF89
:1079B6001288989013D0120B619013CEE0FCA3E0CE
:1079C600FD8D828C83EF12077C9013CEE475F00157
:0C79D60012083B80A89013D3E0FF8F84C0
:0179E2002282
:1067B8004105D3004205DA00004205D10000420538
:0367C800CF0000FF
:10946300A2AC9210C2AC9005D6E4F0A3E4F0900550
:10947300CDE4F0A3E4F09005CBE4F0A3E4F0A21074
:0294830092ACA9
:0194850022C4
:0E783E00901380120B81901383ECF0A3EDF0F9
:10784C0090138BE584F0901380120B619005C51298
:10785C000B81901383E0FEA3E0FF9005D4EEF0A320
:10786C00EFF0901385120B619005C8120B819013E9
:10787C0088E0FEA3E0FF9005D8EEF0A3EFF07B01CB
:10788C007A13798C7D007C001285537B017A1379F5
:10789C008C7D007C0012746D7F007E0012861D12A0
:1078AC00935D12946375840075985090138AE0FF71
:0F78BC008F91C299C298D2AC90138BE0FF8F844A
:0178CB00229A
:10935D00901565E584F0758400C2ACC299C29890F1
:10936D0005CBE4F0A3E4F09005DAE4F0A3E4F0908B
:06937D001565E0FF8F847E
:0193830022C7
:10948600A2AC9211C2AC9005CBE0FEA3E0FF900720
:10949600CEEEF0A3EFF0A21192AC9007CEE0FEA3C1
:0294A600E0FFE5
:0194A80022A1
:0E746D009013F5120B819013F8ECF0A3EDF0E4
:10747B009013F5120B619013FA120B8112948690F4
:10748B0013F8E0FCA3E0FDD3ED9FEE6480F8EC6411
:10749B00809850799013FDE4F0A3E4F09013F8E09A
:1074AB00FEA3E0FF9013FDE0FCA3E0FDC3ED9FEE18
:1074BB006480F8EC64809850519013FDE0FEA3E0DB
:1074CB00FF9005CDE0FCA3E0FDED2FFFEC3EFE9021
:1074DB0005D4E0FCA3E0FD1208059005C5120B6175
:1074EB008D828C8312073DFF9013FA120B61901360
:1074FB00FDE0FCA3E0FD8D828C83EF12077C9013E3
:0F750B00FDE475F00112083B80927F01227F00A2
:01751A00224E
:08861D0090153CEEF0A3EFF014
:10862500A2AC9212C2AC9005CBE0FEA3E0FF901580
:108635003CE0FCA3E0FDC3EF9DFFEE9CFE9005CB67
:10864500EEF0A3EFF090153CE0FEA3E0FF9005CD22
:10865500EE8FF012083B9005CDE0FEA3E0FF9005FC
:10866500D4E0FCA3E0FD1208059005CDECF0A3EDE8
:05867500F0A21292AC1E
:01867A0022DD
:0E8553009013FF120B81901402ECF0A3EDF0D8
:108561009013FF120B61901406120B81901404E416
:10857100F0A3E4F0901402E0FEA3E0FF901404E005
:10858100FCA3E0FDC3ED9FEE6480F8EC648098509D
:1085910025901406120B61901404E0FEA3E0FF8FF6
:1085A100828E8312073DFF12770F901404E475F059
:0685B1000112083B80BE30
:0185B70022A1
:05770F0090153EEFF0B3
:107714009005D8E0FEA3E0FF9005CFE0FCA3E0FDD8
:10772400ED6F7002EC6E60E8A2AC9213C2AC9005EF
:10773400CFE0FEA3E0FFEF4E604790153EE0FF90E0
:1077440005C8120B619005D1E0FCA3E0FD8D828C8D
:1077540083EF12077C9005D1E475F00112083B9089
:1077640005D8E0FEA3E0FF9005D1E0FCA3E0FDED29
:10777400B50725ECB506219005D1E4F0A3E4F0802B
:107784001790153FE584F075840090153EE0FF8F57
:107794009990153FE0FF8F849005CFE475F00112B6
:0677A400083BA21392ACA9
:0177AA0022BC
:03002300026890E0
:10689000C0E0C0F0C083C082C0D075D000C000C0CE
:1068A00001C002C003C004C005C006C00730985A2A
:1068B000C298E59154C0FFEF600553913F804B9023
:1068C00005C5120B619005D6E0FEA3E0FF8F828E16
:1068D00083E59912077C9005D6E475F00112083B18
:1068E0009005D4E0FEA3E0FF9005D6E0FCA3E0FD18
:1068F000EDB5070CECB506089005D6E4F0A3E4F07E
:106900009005CBE475F00112083B309969C299E516
:106910009130E5099005D3E591F05391DF9005CFD3
:1069200074FF75F0FF12083B9005CFE0FEA3E0FF77
:10693000EF4E60429005C8120B619005DAE0FEA3AD
:10694000E0FF8F828E8312073DFF8F999005DAE476
:1069500075F00112083B9005D8E0FEA3E0FF90051A
:10696000DAE0FCA3E0FDEDB5070CECB506089005F8
:10697000DAE4F0A3E4F0D007D006D005D004D003C9
:10698000D002D001D000D0D0D082D083D0F0D0E0DF
:0169900032D4
:1067CB0042130700004212FF00004212FD0000427C
:0E67DB00130B000042130300004213010000E4
:0E7A6A0090138D120B81901390ECF0A3EDF0B1
:107A7800901397E584F090138D120B619012F71212
:107A88000B81901390E0FEA3E0FF901305EEF0A3A6
:107A9800EFF0901392120B619012FA120B8190136F
:107AA80095E0FEA3E0FF901309EEF0A3EFF07B0151
:107AB8007A1379987D007C001285B87B017A137956
:107AC800987D007C0012751B7F007E0012834B128C
:107AD80092E5758401759810C299C29843E7409061
:067AE8001397E0FF8F84FC
:017AEE002275
:1092E500901566E584F075840153E7BFC299C2986D
:1092F5009012FDE4F0A3E4F090130BE4F0A3E4F086
:07930500901566E0FF8F8464
:01930C00223E
:1091BB00E5E75440FF90151AEFF053E7BF9012FD0F
:1091CB00E0FEA3E0FF901518EEF0A3EFF090151A58
:0D91DB00E0FFEF42E7901518E0FEA3E0FF73
:0191E8002264
:0E751B00901409120B8190140CECF0A3EDF00B
:10752900901409120B6190140E120B811291BB90E9
:10753900140CE0FCA3E0FDD3ED9FEE6480F8EC644D
:1075490080985079901411E4F0A3E4F090140CE0C1
:10755900FEA3E0FF901411E0FCA3E0FDC3ED9FEE54
:107569006480F8EC6480985051901411E0FEA3E017
:10757900FF9012FFE0FCA3E0FDED2FFFEC3EFE9033
:107589001305E0FCA3E0FD1208059012F7120B6148
:107599008D828C8312073DFF90140E120B6190149B
:1075A90011E0FCA3E0FD8D828C83EF12077C90141F
:0F75B90011E475F00112083B80927F01227F00E0
:0175C80022A0
:08834B0090151BEEF0A3EFF00A
:10835300E5E75440FF90151DEFF053E7BF9012FD82
:10836300E0FEA3E0FF90151BE0FCA3E0FDC3EF9D3F
:10837300FFEE9CFE9012FDEEF0A3EFF090151BE0D4
:10838300FEA3E0FF9012FFEE8FF012083B9012FF66
:10839300E0FEA3E0FF901305E0FCA3E0FD12080557
:1083A3009012FFECF0A3EDF090151DE0FFEF42E714
:0183B30022A7
:0E85B800901413120B81901416ECF0A3EDF04A
:1085C600901413120B6190141A120B81901418E474
:1085D600F0A3E4F0901416E0FEA3E0FF901418E078
:1085E600FCA3E0FDC3ED9FEE6480F8EC6480985038
:1085F6002590141A120B61901418E0FEA3E0FF8F69
:10860600828E8312073DFF1275C9901418E475F027
:068616000112083B80BECA
:01861C00223B
:0575C90090151EEFF01B
:1075CE00901309E0FEA3E0FF901301E0FCA3E0FDA1
:1075DE00ED6F7002EC6E60E8E5E75440FF90152009
:1075EE00EFF053E7BF901301E0FEA3E0FFEF4E6014
:1075FE004790151EE0FF9012FA120B61901303E0F4
:10760E00FCA3E0FD8D828C83EF12077C901303E4C4
:10761E0075F00112083B901309E0FEA3E0FF9013F2
:10762E0003E0FCA3E0FDEDB50725ECB506219013B4
:10763E0003E4F0A3E4F0801790151FE584F0758441
:10764E000190151EE0FF8F9990151FE0FF8F84901B
:10765E001301E475F00112083B901520E0FFEF4294
:01766E00E734
:01766F0022F8
:0300A300026C6F7D
:106C6F00C0E0C0F0C083C082C0D075D000C000C0EB
:106C7F0001C002C003C004C005C006C00730984D54
:106C8F00C2989012F7120B61901307E0FEA3E0FF7A
:106C9F008F828E83E59912077C901307E475F001BC
:106CAF0012083B901305E0FEA3E0FF901307E0FCF2
:106CBF00A3E0FDEDB5070CECB50608901307E4F063
:106CCF00A3E4F09012FDE475F00112083B30995BDC
:106CDF00C29990130174FF75F0FF12083B901301D6
:106CEF00E0FEA3E0FFEF4E60429012FA120B6190AC
:106CFF00130BE0FEA3E0FF8F828E8312073DFF8F01
:106D0F009990130BE475F00112083B901309E0FE04
:106D1F00A3E0FF90130BE0FCA3E0FDEDB5070CEC37
:106D2F00B5060890130BE4F0A3E4F0D007D006D01B
:106D3F0005D004D003D002D001D000D0D0D082D063
:066D4F0083D0F0D0E03219
:0A975B0053FF7F43FF0775FFA522AF
:0497A10075FFA52289
:1096A000A2AF9214C2AFC2AF75FFDE75FFADA214B8
:0296B00092AF77
:0196B2002295
:0497A50075FFFF222B
:0467E90041156800EE
:107670007F0F128C3890126DE0FFEFB40102C2D878
:107680007F207E1C7D007C00900278120AF2120995
:1076900053A804A905AA06AB0790022FE0FFE4FC5B
:1076A000FDFE120953C004C005C006C0077F647EFA
:1076B000007D007C00900257120AF2120953A804C0
:1076C000A905AA06AB07D007D006D005D004C3127F
:1076D0000A7E503720D832901567E4F0901567E0A5
:1076E000FFEFC39403502290028DE0FF901567E0F6
:1076F000FEEE75F017A424BBF582E43402F583EFA7
:0E770000F0901567E004F080D3D2D812929377
:01770E002258
:055A2B009013D4EFF020
:105A30009013D4E0FFEF540FFF7E00900266E0FD6C
:105A40007C00C3ED9FFDEC9EFCE41203C27B007A58
:105A5000007920784012019E9013D5120AFE7F0033
:105A60007E007DA07C409013D5120AF21200AD900A
:105A700013D9120AFE90020CE0FFEF24CEFF901320
:105A8000DDEFF090020DE0FFEF24CEFF9013DEEF8C
:105A9000F090022DE0FFEF20E6077D007F01126EFF
:105AA0003A9013DDE0FCEC1203C79013D5120AF212
:105AB000120344600250169013DEE0FCEC1203C7A0
:105AC0009013D5120AF2120344602C402A90022D42
:105AD000E0FFEF30E6119005E6E0FFEF70197D0181
:105AE0007F01126E3A80109005E6E0FFEFB40107E7
:105AF0007D007F01126E3A9005E6E0FFEF640170D1
:105B0000677F007E007D007C009013D9120AF2129C
:105B10000344603340319013DDE0FCEC1203C79086
:105B200013D9120AF2120344503E9013DEE0FCEC4B
:105B30001203C79013D9120AF2120344502A7D00AF
:105B40007F01126E3A80219013DDE0FFD3EF648075
:105B5000948040149013DEE0FFD3EF648094804083
:105B6000077D007F01126E3A9005E6E0FFEFB40179
:105B70000F90022DE0FFEF4480FF90022DEFF02206
:0E5B800090022DE0FFEF547FFF90022DEFF01A
:015B8E0022F4
:10955300901540EFF0901541EDF0901540E0FF902D
:0F956300022EEFF0901541E0FF90022FEFF02263
:10447B00900257120AF2900209E0FEA3E0FFEE331E
:10448B0095E0FDFC120938900257120AFE7F207E40
:10449B001C7D007C00900278120AF2120953A804CA
:1044AB00A905AA06AB07900280E0FF7E00C3E49F3C
:1044BB00FFE49EFEE4FCFD1209537B647A00790055
:1044CB007800128C7C900257120AF2D3120A7E40AB
:1044DB0010900257120AE6C004C005C006C0078040
:1044EB00407F207E1C7D007C00900278120AF21225
:1044FB000953A804A905AA06AB07900280E0FF7E2A
:10450B0000C3E49FFFE49EFEE4FCFD1209537B64B1
:10451B007A0079007800128C7CC004C005C006C0FC
:10452B00077F207E1C7D007C00900278120AF2121D
:10453B000953A804A905AA06AB07900280E0FFE483
:10454B00FCFDFE1209537B647A0079007800128C13
:10455B007CA804A905AA06AB07D007D006D005D0C6
:10456B0004D3120A7E50030245FB7F207E1C7D0084
:10457B007C00900278120AF2120953A804A905AA2A
:10458B0006AB07900280E0FF7E00C3E49FFFE49E32
:10459B00FEE4FCFD1209537B647A0079007800126B
:1045AB008C7C900257120AF2D3120A7E40089002BA
:1045BB0057120AE680387F207E1C7D007C0090021B
:1045CB0078120AF2120953A804A905AA06AB0790A0
:1045DB000280E0FF7E00C3E49FFFE49EFEE4FCFD4F
:1045EB001209537B647A0079007800128C7C80303E
:1045FB007F207E1C7D007C00900278120AF212094B
:10460B0053A804A905AA06AB07900280E0FFE4FCBF
:10461B00FDFE1209537B647A0079007800128C7CC2
:10462B00900257120AFE90026AE0FFEF6003024607
:10463B00E090027CE0FEA3E0FF900205E0FCA3E02B
:10464B00FDC3ED9FEC9E501790027CE0FEA3E0FFB4
:10465B00900207E0FCA3E0FDC3ED9FEC9E40237F9F
:10466B00207E1C7D007C00900278120AF212095306
:10467B00900257120AFE9002287402F090126D7489
:10468B0001F090027EE0FEA3E0FF900205E0FCA3A8
:10469B00E0FDD3ED9FEC9E401790027EE0FEA3E081
:1046AB00FF900207E0FCA3E0FDD3ED9FEC9E5020B2
:1046BB00901568E004F0901568E0FFEFB4031690D6
:1046CB000257120B0A00000000901568E4F08005F9
:1046DB00901568E4F07F207E1C7D007C00900278B2
:1046EB00120AF2120953EC1203BDC004C005C00636
:1046FB00C007900257120AE6EC1203BDD003D0029A
:10470B00D001D0001202A77B007A0079007800124A
:10471B00034450347F207E1C7D007C009002781275
:10472B000AF2120953EC1203BDC004C005C006C047
:10473B0007900257120AE6EC1203BDD003D002D049
:10474B0001D0001202A780087F007E007D007C0054
:06475B0090026B120AFE41
:014761002235
:1072F200900271E0FFEF120B8A73AB00731A0173F5
:107302002202732A0373440473750573A10973A8D7
:107312000A000073AB0273AB7F011296B30273AB28
:107322007F021296B30273AB90022CE0FD7F007EC7
:1073320000124185900260E0FD7F017E00124185CE
:1073420080677B017A02794D9013B6E4F0A3740250
:10735200F07F017E00127F5990022CE0FF7E007BBD
:10736200017A02794B9013B6E4F0A37402F0127F13
:1073720059803690022CE0FF901435EFF07F007EAA
:10738200007D007C00125B8F900260E0FF9014355C
:10739200EFF07F017E007D007C00125B8F800A7F10
:0F73A20001127FD0800312841C900271E4F0224C
:0689E800901344120AFE88
:1089EE00901348120B0AB6A19C9090134C120B0ACE
:1089FE00BDE04189901350120B0A43695B7F9013BF
:108A0E0044120AE6901348120AF212019E90134C79
:108A1E00120AF21200AD901344120AF212019E9045
:088A2E001350120AF21200AD10
:018A3600221D
:10867B00901569EFF0128F357F0F128C38901569BA
:10868B00E0FFEFB402179002367402F0900294E010
:10869B00FEA3E0FF128ACFC2CDD2CE800A90023663
:1086AB007401F0D2CDC2CE1292937D017F01127C68
:1086BB00F87F00128C38D2DE75DA4275DB4275DC3E
:0D86CB004212929390022CE0FF127C792263
:105565007F0F128C38900267E0FFEF70030256F14F
:1055750030C85C20E9547F017E00128841900222E8
:10558500EFF0900222E004F0900222E0FD7F017E20
:105595000012418590001FE004F090001FE0FFEF2E
:1055A500D3940A501CC2C8900062E0FEA3E0FFC37A
:1055B50074E89FFB74039EFA7D017F00127B748063
:1055C5000E90001FE4F0C2C8800590001FE4F03083
:1055D500C95C20EA547F027E00128841900223EFC5
:1055E500F0900223E004F0900223E0FD7F027E00AC
:1055F500124185900020E004F0900020E0FFEFD3F9
:10560500940A501CC2C9900062E0FEA3E0FFC37477
:10561500E89FFB74039EFA7D017F01127B74800E67
:10562500900020E4F0C2C98005900020E4F030CA63
:105635005C20EB547F037E00128841900224EFF03A
:10564500900224E004F0900224E0FD7F037E001226
:105655004185900021E004F0900021E0FFEFD39414
:105665000A501CC2CA900062E0FEA3E0FFC374E8C2
:105675009FFB74039EFA7D017F02127B74800E905E
:105685000021E4F0C2CA8005900021E4F030CB5C33
:1056950020EC547F047E00128841900225EFF090A3
:1056A5000225E004F0900225E0FD7F047E00124112
:1056B50085900022E004F0900022E0FFEFD3940AE9
:1056C500501CC2CB900062E0FEA3E0FFC374E89FCC
:1056D500FB74039EFA7D017F03127B74800E90009C
:1056E50022E4F0C2CB8005900022E4F0900290E025
:1056F500FEA3E0FF900210E0FCA3E0FDC3ED9FECEC
:105705009E501230CD077F0212867B800830CE0571
:105715007F0112867B90004FE0FFEF600C7F011246
:10572500867B90004FE4F08012900050E0FFEF6020
:0F5735000A7F0212867B900050E4F012929322BA
:108F35007F101286D875840FC2CDC2CE758400C24B
:108F4500DE75DA4075DB4075DC407D007F00126E12
:108F55003A7D007F01126E3A75DF4075840FC2D9E4
:098F6500C2DAC2DBC2DCC2DD226B
:1029E70090156AEFF090156AE0FFEF25E024F9F5FE
:1029F70082E43401F583E0FEA3E0FFE4FCFD9015DB
:102A07006AE0FBEB75F017A424A5F582E43402F520
:102A170083120AFE90156AE0FFEF25E024FFF58296
:102A2700E43401F583E0FEA3E0FFE4FCFD90156AC2
:102A3700E0FBEB75F017A424B1F582E43402F583CB
:102A4700120AFE90022CE0FFEF120B8A2A60012D7A
:102A570089022E5903000030F690156AE0FFEF75E2
:102A6700F017A424B1F582E43402F583120AE69044
:102A7700156AE0FBEB75F017A424A5F582E4340290
:102A8700F583120AF21209537BE87A03790078007A
:102A97001209DE90156AE0FBEB75F017A424A9F57F
:102AA70082E43402F583120AFE90028BE0FEA3E073
:102AB700FF900247E0FCA3E0FDD3ED9FEC9E401E94
:102AC70090156AE0FFEF75F017A424BBF582E43494
:102AD70002F583E0FFEFC313FFEFF0022D4F9015D0
:102AE7006AE0FFEF75F00CA4247FF582E43412F559
:102AF70083120AE6AB07AA06A905A804A804A90534
:102B0700AA06AB0790156AE0FFEF75F017A424A992
:102B1700F582E43402F583120AE612094590156A34
:102B2700E0FBEB75F017A424B7F582E43402F583D4
:102B3700120AFE90156AE0FFEF75F00CA4247BF5EE
:102B470082E43412F583120AE6AB07AA06A905A8A0
:102B570004A804A905AA06AB0790156AE0FFEF755C
:102B6700F017A424A5F582E43402F583120AE612CD
:102B7700094590156AE0FBEB75F017A424ADF582C3
:102B8700E43402F583120AFE90156AE0FFEF75F050
:102B970017A424BBF582E43402F583C083C082E026
:102BA700FFC00790156AE0FFEF75F017A424ADF595
:102BB70082E43402F583120AE67B007A0079007812
:102BC70000D3120A7E40067EFF7FFF802E90156A93
:102BD700E0FFEF75F017A424ADF582E43402F58326
:102BE700120AE67B007A0079007800C3120A7E5049
:102BF700067E007F0180047E007F00C00790156A73
:102C0700E0FFEF75F017A424B7F582E43402F583EB
:102C1700120AE67B007A0079007800D3120A7E4018
:102C2700067EFF7FFF802E90156AE0FFEF75F01795
:102C3700A424B7F582E43402F583120AE67B007A0E
:102C47000079007800C3120A7E50067E007F01805B
:102C5700047E007F00AE07D007EE8FF0A4FF90023E
:102C670060E0FEEF8EF0A4FED007C3EF9EFFD08298
:102C7700D083EFF090156AE0FFEF75F017A424BB3F
:102C8700F582E43402F583E0FF745AC39F5017902E
:102C9700156AE0FFEF75F017A424BBF582E4340250
:102CA700F583E0FF80027F5AEFC394CC503890152C
:102CB7006AE0FFEF75F017A424BBF582E43402F550
:102CC70083E0FF745AC39F501790156AE0FFEF75B2
:102CD700F017A424BBF582E43402F583E0FF8002F9
:102CE7007F5A7E0080047E007FCC90156AE0FEEE5E
:102CF70075F017A424BBF582E43402F583EFF09056
:102D0700156AE0FF7E17EF8EF0A4FFAEF074A52FD3
:102D1700F974023EFA7B01C003C002C00190156A34
:102D2700E0FF7E0CEF8EF0A4FFAEF0747B2FF974FA
:102D3700123EFA7B01A801AC02AD03D001D002D04C
:102D4700037E007F0C1206FE90156AE0FFEFC39426
:102D57000050030230F690156AE0FFEFC39403407A
:102D6700030230F690156AE0FFEF75F017A424BB55
:102D7700F582E43402F583E0FD90156AE0FF126BFB
:102D8700862290156AE0FFEF75F017A424B5F58247
:102D9700E43402F583E0FCA3E0FDE41203C2C004BF
:102DA700C005C006C007900247E0FEA3E0FFC3745A
:102DB700019FE49E500E900247E0FEA3E0FFAC06A1
:102DC700AD0780087E007F01AC06AD07E41203C2A1
:102DD700A804A905AA06AB07D007D006D005D004DA
:102DE7001202A7A804A905AA06AB077F007E007DEB
:102DF700807C3F1200A97B007A00797F784312011B
:102E07009E1203FB90156AE0FEEE75F017A424BB33
:102E1700F582E43402F583EFF090156AE0FFE4D31E
:102E27009F40030230F690156AE0FFEFC39403401A
:102E3700030230F690156AE0FFEF75F017A424BB84
:102E4700F582E43402F583E0FD90156AE0FF126B2A
:102E5700862290028BE0FEA3E0FF900247E0FCA3EE
:102E6700E0FDD3ED9FEC9E401C90156AE0FFEF75E7
:102E7700F017A424BBF582E43402F583E0FFEFC327
:102E870013FFEFF02290156AE0FFEF75F00CA42412
:102E97007BF582E43412F583120AE6AB07AA06A98A
:102EA70005A804A804A905AA06AB0790156AE0FFC0
:102EB700EF75F017A424A5F582E43402F583120A0E
:102EC700E612094590156AE0FBEB75F017A424ADEF
:102ED700F582E43402F583120AFE90156AE0FFEFEB
:102EE70075F017A424ADF582E43402F583120AE6DF
:102EF7007B007A0079007800D3120A7E402F901564
:102F07006AE0FFEF75F017A424ADF582E43402F50B
:102F170083120AE6120A7090156AE0FBEB75F01748
:102F2700A424ADF582E43402F583120AFE90156AF3
:102F3700E0FFEF75F017A424BBF582E43402F583B4
:102F4700C083C082E0FFC00790156AE0FFEF75F00D
:102F57000CA42483F582E43412F583120AF2901547
:102F67006AE0FFEF75F017A424ADF582E43402F5AB
:102F770083120AE61209457B007A0079007800D3AC
:102F8700120A7E40067EFF7FFF804790156AE0FFAA
:102F9700EF75F00CA42483F582E43412F583120A4A
:102FA700F290156AE0FFEF75F017A424ADF582E4FF
:102FB7003402F583120AE61209457B007A0079008C
:102FC7007800C3120A7E50067E007F0180047E00CF
:102FD7007F00900260E0FEEF8EF0A4FED007C3EF03
:102FE7009EFFD082D083EFF090156AE0FFEF75F077
:102FF70017A424BBF582E43402F583E0FF7433C3DE
:103007009F501790156AE0FFEF75F017A424BBF5E2
:1030170082E43402F583E0FF80027F33EFC394CC70
:10302700503890156AE0FFEF75F017A424BBF582BE
:10303700E43402F583E0FF7433C39F501790156A99
:10304700E0FFEF75F017A424BBF582E43402F583A3
:10305700E0FF80027F337E0080047E007FCC9015E6
:103067006AE0FEEE75F017A424BBF582E43402F59E
:1030770083EFF090156AE0FF7E17EF8EF0A4FFAEA6
:10308700F074A52FF974023EFA7B01C003C002C099
:103097000190156AE0FF7E0CEF8EF0A4FFAEF0748E
:1030A7007B2FF974123EFA7B01A801AC02AD03D065
:1030B70001D002D0037E007F0C1206FE90156AE055
:1030C700FFEFC39400402890156AE0FFEFC3940315
:1030D700501D90156AE0FFEF75F017A424BBF58229
:1030E700E43402F583E0FD90156AE0FF126B862257
:057C7900901542EFF040
:107C7E007F0F128C38901542E0FF90022CEFF0909F
:107C8E001542E0FFEF120B8A7CA6007CAC017CE46F
:107C9E00027CAC0300007CEAD2D9C2DA804890158F
:107CAE0043E4F0901543E0FFEFC39403502290029B
:107CBE008DE0FF901543E0FEEE75F017A424BBF5A2
:107CCE0082E43402F583EFF0901543E004F080D3A4
:107CDE00C2D9D2DA8010C2D9D2DA800A90022C74BC
:097CEE0009F0D2D9C2DA12929316
:017CF700226A
:10198C007B017A00796A900277E0FD1258BE9001D3
:10199C006AE4F090016AE0FFC3EF64809483400333
:1019AC00021A5090016AE0FFEF3395E0FEEF7805E4
:1019BC00C333CE33CED8F9FF746A2FF58274003E50
:1019CC00F583120AE67B007A0079E6784212019ED2
:1019DC007B007A00793C78421202A7C004C005C093
:1019EC0006C00790016AE0FFEF3395E0FE74D02F3C
:1019FC00F58274123EF583E0FCEC1203C7A804A92F
:101A0C0005AA06AB07D007D006D005D0041200AD4E
:101A1C001203FBAD07AC06AC06AD0790016AE0FF04
:101A2C00EF3395E0FEEF25E0FFEE33FE74F92FF572
:101A3C008274013EF583ECF0A3EDF090016AE004B2
:101A4C00F002199F90016AE4F090016AE0FFC3EF85
:101A5C00648094834003021AFB90016AE0FFEF3329
:101A6C0095E0FEEF7805C333CE33CED8F9FF746E14
:101A7C002FF58274003EF583120AE67BC27AF57963
:101A8C0028783F1202A7C004C005C006C007900109
:101A9C006AE0FFEF3395E0FE74D32FF58274123EAB
:101AAC00F583E0FCEC1203C7A804A905AA06AB0752
:101ABC00D007D006D005D0041200AD1203FBAD0741
:101ACC00AC06AC06AD0790016AE0FFEF3395E0FE83
:101ADC00EF25E0FFEE33FE74FF2FF58274013EF527
:101AEC0083ECF0A3EDF090016AE004F0021A55903B
:101AFC00016AE4F090016AE0FFC3EF6480948540D2
:101B0C0003021B8D90016AE0FFEF3395E0FEEF7846
:101B1C0005C333CE33CED8F9FF74722FF58274001F
:101B2C003EF583120AE61289E8C004C005C006C05F
:101B3C000790016AE0FFEF3395E0FE74D82FF58231
:101B4C0074123EF583E0FCEC1203C7A804A905AAA5
:101B5C0006AB07D007D006D005D0041200AD120397
:101B6C00FB90016AE0FEEEFD3395E0FC74F42DF57C
:101B7C008274013CF583EFF090016AE004F0021BE3
:101B8C000090016AE4F090016AE0FFC3EF64809476
:101B9C00844003021C6190016AE0FFEF3395E0FE84
:101BAC00EF7805C333CE33CED8F9FF74762FF58298
:101BBC0074003EF583120AE67B007A0079207842A5
:101BCC0012019E7B007A00792078411202A7C00492
:101BDC00C005C006C00790016AE0FFEF3395E0FE38
:101BEC00EF2402FFEE3400FE7C007D041208057425
:101BFC00E02DF58274123CF583E0FCEC1203C7A8CF
:101C0C0004A905AA06AB07D007D006D005D004124C
:101C1C0000AD1203FBAB07AA06AA06AB0790016A3C
:101C2C00E0FFEF3395E0FEEF2402FFEE3400FE7C84
:101C3C00007D04120805ED25E0FFEC33FE74122F35
:101C4C00F58274023EF583EAF0A3EBF090016AE0B2
:101C5C0004F0021B9290016AE4F090016AE0FFC369
:101C6C00EF648094844003021D2A90016AE0FFEF28
:101C7C003395E0FEEF7805C333CE33CED8F9FF743D
:101C8C007A2FF58274003EF583120AE67BD67AA38E
:101C9C007970783F1202A7C004C005C006C0079037
:101CAC00016AE0FFEF3395E0FEEF2402FFEE340013
:101CBC00FE7C007D0412080574E42DF58274123C40
:101CCC00F583E0FCEC1203C7A804A905AA06AB0730
:101CDC00D007D006D005D0041200AD1203FBAB0721
:101CEC00AA06AA06AB0790016AE0FFEF3395E0FE67
:101CFC00EF2402FFEE3400FE7C007D04120805ED9B
:101D0C0025E0FFEC33FE741A2FF58274023EF58346
:101D1C00EAF0A3EBF090016AE004F0021C6690017B
:101D2C006AE4F090016AE0FFC3EF648094824003A0
:101D3C00021DD590016AE0FFEF3395E0FEEF7805C8
:101D4C00C333CE33CED8F9FF74362FF58274013EEF
:101D5C00F583120AE67BAB7AAA79CA784012019E07
:101D6C00C004C005C006C00790016AE0FFEF3395C0
:101D7C00E0FE74EC2FF58274123EF583E0FCEC125D
:101D8C0003C7A804A905AA06AB07D007D006D0053F
:101D9C00D0041200AD1203FBAD07AC06AC06AD07C8
:101DAC0090016AE0FFEF3395E0FEEF25E0FFEE33A4
:101DBC00FE74532FF58274023EF583ECF0A3EDF024
:101DCC0090016AE004F0021D2F90016AE4F090018A
:101DDC006AE0FFC3EF648094824003021E679001A7
:101DEC006AE0FFEF3395E0FEEF7805C333CE33CED8
:101DFC00D8F9FF747E2FF58274003EF583120AE643
:101E0C001289E8C004C005C006C00790016AE0FF53
:101E1C00EF3395E0FE74EF2FF58274123EF583E0FC
:101E2C00FCEC1203C7A804A905AA06AB07D007D07F
:101E3C0006D005D0041200AD1203FB90016AE0FE3F
:101E4C00EEFD3395E0FC740C2DF58274023CF583A9
:101E5C00EFF090016AE004F0021DDA90016AE4F000
:101E6C0090016AE0FFC3EF648094824003021F126A
:101E7C0090016AE0FFEF3395E0FEEF7805C333CEB7
:101E8C0033CED8F9FF74822FF58274003EF583129D
:101E9C000AE67B007A007900784012019EC004C0EB
:101EAC0005C006C00790016AE0FFEF3395E0FE74B1
:101EBC00F12FF58274123EF583E0FCEC1203C7A8F7
:101ECC0004A905AA06AB07D007D006D005D004128A
:101EDC0000AD1203FBAD07AC06AC06AD0790016A72
:101EEC00E0FFEF3395E0FEEF25E0FFEE33FE7405E7
:101EFC002FF58274023EF583ECF0A3EDF090016AAD
:101F0C00E004F0021E6C9012F3E0FCEC1203C7909C
:101F1C0000BE120AF21200AD1203FB900241EEF069
:101F2C00A3EFF0900241E0FCA3E0FDE41203C290A9
:101F3C0000DE120AF21200A97B5D7A7479117840E6
:101F4C0012019EC004C005C006C0079012F4E0FC4C
:101F5C00EC1203C7A804A905AA06AB07D007D00644
:101F6C00D005D0041200AD1203FB900209EEF0A3D1
:101F7C00EFF07F007E007DC87C439000C2120AF215
:101F8C0012019E7B007A0079C878421202A7C00425
:101F9C00C005C006C0079012F5E0FCEC1203C7A800
:101FAC0004A905AA06AB07D007D006D005D00412A9
:101FBC0000AD1203FB900243EEF0A3EFF07F007E26
:101FCC00007DC87C439000E2120AF212019E7B0055
:101FDC007A0079C878421202A7C004C005C006C0B6
:101FEC00079012F6E0FCEC1203C7A804A905AA0698
:101FFC00AB07D007D006D005D0041200AD1203FBFE
:10200C00900247EEF0A3EFF07F007E007DCA7C4289
:10201C009000CA120AF212019E7B007A007988782D
:10202C00421202A7C004C005C006C0079012D6E039
:10203C00FCEC1203C7A804A905AA06AB07D007D06D
:10204C0006D005D0041200AD1203FB900249EEF04D
:10205C00A3EFF07F007E007DC87C439000CE120A77
:10206C00F212019E7B007A0079C878421202A7C056
:10207C0004C005C006C0079012D7E0FCEC1203C7E1
:10208C00A804A905AA06AB07D007D006D005D00432
:10209C001200AD1203FB900245EEF0A3EFF07F00AF
:1020AC007E007D307C419000F6120AF212019EC037
:1020BC0004C005C006C0079012E8E0FCEC1203C790
:1020CC00A804A905AA06AB07D007D006D005D004F2
:1020DC001200AD1203FB90024BEEF0A3EFF07F94D5
:1020EC007E2B7D887C3F9000FA120AF212019EC072
:1020FC0004C005C006C0079012E9E0FCEC1203C74F
:10210C00A804A905AA06AB07D007D006D005D004B1
:10211C001200AD1203FB90024DEEF0A3EFF07F0026
:10212C007E007DC87C43900116120AF212019E7B40
:10213C00007A0079C878421202A7C004C005C00614
:10214C00C0079012EAE0FCEC1203C7A804A905AA88
:10215C0006AB07D007D006D005D0041200AD120391
:10216C00FB90024FEEF0A3EFF09012EBE0FCEC12C0
:10217C0003C790011A120AF21200AD1203FB90026F
:10218C0051EEF0A3EFF07F947E2B7D887C3F900185
:10219C003A120AF212019EC004C005C006C0079094
:1021AC0012EEE0FCEC1203C7A804A905AA06AB07C3
:1021BC00D007D006D005D0041200AD1203FB90025C
:1021CC000EEEF0A3EFF01297501203FB900229EEE3
:1021DC00F0A3EFF0900236E0FFEFB402129002553C
:1021EC00E0FEA3E0FF900210EEF0A3EFF080109061
:1021FC000253E0FEA3E0FF900210EEF0A3EFF07BA1
:10220C00017A127944128A84E4FCFD90023D120A90
:01221C00FEC3
:01221D00229E
:108E41001296E190026FEFF01296EF900270EFF040
:108E51007B017A0279729013AAE4F0A37405F07F82
:108E6100007E00127DF290133DE0FF900298EFF03A
:0F8E71007F00128C38900227E5EFF012929322C7
:0C002E007F00128C3875DD421292932284
:0C96FD007F00128C3875DD401292932221
:0C9709007F00128C3875DE421292932211
:0C9715007F00128C3875DE401292932207
:106E3A00901544EFF0901545EDF0901544E0FFEF02
:106E4A00120B8A6E5A006ECF016F0D0200006F0D91
:106E5A007F0F128C38901545E0FFEF640170569051
:106E6A0005F07403F0900238E0FFEF54FDFF900242
:106E7A0038EFF030FA1C900238E0FFEF4401FF903F
:106E8A000238EFF090123E7401F090127A7401F019
:106E9A00802F9005F0E0FD7F03126B8612002E9082
:106EAA00123D7402F0900238E0FFEF4401FF9002B5
:106EBA0038EFF0800C90123E7402F090127A74014E
:106ECA00F012929322901545E0FFEFB4011E900252
:106EDA0061E0FF9005F1EFF09005F1E0FD7F04120B
:106EEA006B861297099005E67401F0229005E6E494
:106EFA00F09005F1E4F09005F1E0FD7F04126B8655
:046F0A0012971522A3
:1077AB009009FBEFF09009FCEDF09009FDEAF0A3D6
:1077BB00EBF09009FBE0FFC3EF6480948040739083
:1077CB0009FBE0FFC3EF6480948350669009FCE0F3
:1077DB00FF9009FBE0FEEEFD3395E0FC74DC2DF52C
:1077EB008274053CF583EFF09009FDE0FEA3E0FF0A
:1077FB009009FBE0FDED3395E0FC9005F575F00588
:10780B00ED120B55EC75F005A42583F583EEF0A373
:10781B00EFF09009FBE0FFEF3395E0FE9005F77575
:10782B00F005EF120B55EE75F005A42583F5837467
:03783B0001F02237
:109217007F0F128C3830FA10900238E0FFEF4402CB
:10922700FF900238EFF0800E900238E0FFEF54FD18
:0A923700FF900238EFF0129293222C
:10941B007F0F128C38E5C8541FFF90023BEFF030E2
:10942B00CF0E90023BE0FFEF4420FF90023BEFF0AA
:04943B0012929322D4
:107CF800901546EFF0901547EDF07F0F128C38D2B3
:107D0800FB901546E0FFEF120B8A7D28007D3401B9
:107D18007D40027D4C037D58047D640500007D6E26
:107D2800901547E0FFEF24FF92C8803A901547E08E
:107D3800FFEF24FF92C9802E901547E0FFEF24FF44
:107D480092CA8022901547E0FFEF24FF92CB80165D
:107D5800901547E0FFEF24FF92CC800A901547E08A
:0D7D6800FFEF24FF92CF12929312941B2282
:107B74009014DCEFF09014DDEDF09014DEEAF0A345
:107B8400EBF07F0F128C38C2FB1292939014DEE05C
:107B9400FEA3E0FF9014DCE0FDED3395E0FC9002E1
:107BA400EC75F005ED120B55EC75F005A42583F585
:107BB40083EEF0A3EFF09014DCE0FFEF3395E0FEEA
:107BC4009002EE75F005EF120B55EE75F005A42545
:107BD40083F5837401F09014DDE0FF9014DCE0FE83
:107BE400EEFD3395E0FC746F2DF58274123CF58341
:037BF400EFF0228D
:0586D800901548EFF0D1
:1086DD00901548E0FFEF543FFF901549EFF09015CE
:1086ED0049E0FFEF30E51C901549E0FFEF54DFFF47
:1086FD00901549EFF0901549E0FFEF4480FF90157C
:10870D0049EFF07F0F128C38901549E0FFEF446070
:10871D00FFEF52C8901549E0FFEF549FFFEF42C89D
:06872D0012929312941B4E
:018733002223
:10841C0090156BE4F090156BE0FFC3EF64809484CF
:10842C00501F90156BE0FFEF3395E0FEEF2401FF3A
:10843C00EE3400FE7D0012418590156BE004F08057
:10844C00D47D007F057E001241857F207E1C7D003F
:10845C007C00900278120AF2120953900257120A09
:10846C00FE7B017A0279579013B6E4F0A37404F002
:07847C007F097E00127F5909
:0184830022D6
:1079E30090156C7401F090156CE0FFC0077B017A71
:1079F3000279229013AAE4F0A37404F07F017E00BD
:107A0300127DF2AE07D007EF5EFF90156CEFF0909A
:107A1300156CE0FFC0077B017A0279999013AAE401
:107A2300F0A37404F07F057E00127DF2AE07D00749
:107A3300EF5EFF90156CEFF090156CE0FFC0077BD5
:107A4300017A0279579013AAE4F0A37404F07F0932
:107A53007E00127DF2AE07D007EF5EFF90156CEF4C
:067A6300F090156CE0FF3D
:017A690022FA
:1094A9007F0F128C38D2FBC2DE12929390028EE0AB
:1094B900FEA3E0FF900058EEF0A3EFF090005A747D
:0394C90001F0228D
:1092410090154AEEF0A3EFF07F0F128C38C2FB129B
:10925100929390154AE0FEA3E0FF900053EEF0A335
:09926100EFF09000557401F022B9
:0F96C3001296347F00128C3843EF1012929322CC
:10926A0090154CEEF0A3EFF07F0F128C38C2FB1270
:10927A00929390154CE0FEA3E0FF90005DEEF0A300
:09928A00EFF090005F7401F02286
:109634007B017A0279579013B6E4F0A37404F07FA7
:07964400097E00127F59228C
:066F0E00901455120AFE6A
:106F140090145AE584F0A2AF920A90145BE5B1F0A4
:106F2400C2AFC2AF7584007F007E007D017C0090FB
:106F34001455120AF2C3120A94500C901455120AF2
:106F4400E68E088F0980527F007E807D017C009050
:106F54001455120AF2C3120A94502E901455120AB0
:106F6400E6EF4400FFEE4480FEED4400FDEC4400F7
:106F7400FC901455120AFE901455120AE68E088FDE
:106F84000953B1CF43B1208010901455120AE68EF4
:106F9400088F0953B1CF43B13043B701438F013058
:106FA4000903438F0475EF02901459E0FFAC08AD58
:106FB400098D828C83EFF0300903538FFB538FFECE
:106FC40053B7FE90145BE0FF8FB190145AE0FF8F2B
:056FD40084A20A92AF47
:016FD9002295
:06722F0090145C120AFE3F
:10723500901460E584F0A2AF920C901461E5B1F072
:10724500C2AFC2AF7584007F007E007D017C0090D7
:10725500145C120AF2C3120A94500C90145C120AC0
:10726500E68E0A8F0B80527F007E807D017C009028
:10727500145C120AF2C3120A94502E90145C120A7E
:10728500E6EF4400FFEE4480FEED4400FDEC4400D3
:10729500FC90145C120AFE90145C120AE68E0A8FAA
:1072A5000B53B1CF43B120801090145C120AE68EC7
:1072B5000A8F0B53B1CF43B130300B03438F04AE6C
:1072C5000AAF0B8F828E83E493FF901462EFF03048
:1072D5000B03538FFB901461E0FF8FB1901460E0B6
:0C72E500FF8F84A20C92AF901462E0FFB7
:0172F100227A
:0670A400900230120AFE0A
:1070AA00900234E584F0A2AF920E900235E5B1F079
:1070BA00C2AFC2AF7584007F007E007D017C009064
:1070CA000230120AF2C3120A94500C900230120AC9
:1070DA00E68E0C8F0D80527F007E807D017C0090B1
:1070EA000230120AF2C3120A94502E900230120A87
:1070FA00E6EF4400FFEE4480FEED4400FDEC440060
:10710A00FC900230120AFE900230120AE68E0C8FB0
:10711A000D53B1CF43B1208010900230120AE68E8F
:10712A000C8F0D53B1CF43B13043B701438F0330B6
:10713A000D03438F0475EF02AE0CAF0D8F828E8361
:10714A00E4F0300D03538FFB538FFC53B7FE9002CC
:10715A0035E0FF8FB1900234E0FF8F84A20E92AF28
:01716A002202
:065B8F00901431120AFE21
:105B95009014367401F0901437E584F0758400C2D2
:105BA500FA759B06901436E0FFC007128B65AE07A9
:105BB500D007EF5EFF901436EFF0C2FFD2FA7F01F7
:105BC5007E00128F6EC2FA759B02901436E0FFC0FC
:105BD50007128B65AE07D007EF5EFF901436EFF026
:105BE500C2FF901431120AE67810120AA58F9B9015
:105BF5001436E0FFC007128B65AE07D007EF5EFFD6
:105C0500901436EFF0C2FF901431120AE6780812AC
:105C15000AA58F9B901436E0FFC007128B65AE076F
:105C2500D007EF5EFF901436EFF0C2FF90143112EB
:105C35000AE68F9B901436E0FFC007128B65AE070E
:105C4500D007EF5EFF901436EFF0C2FF901435E0F9
:105C5500FF8F9B901436E0FFC007128B65AE07D00F
:105C650007EF5EFF901436EFF0C2FFD2FA7F017E98
:105C750000128F6E901438E4F0A3E4F0C2FA759B1D
:105C850005901436E0FFC007128B65AE07D007EF0D
:105C95005EFF901436EFF0C2FF759B00901436E05E
:105CA500FFC007128B65AE07D007EF5EFF90143675
:105CB500EFF0C2FFD2FA901438E475F00112083BF8
:105CC500901438E0FEA3E0FFD3EF94D0EE940740A4
:105CD50007901436E4F08005E59B20E09F9014378B
:095CE500E0FF8F84901436E0FF0B
:015CEE002293
:06819A009005DF120AFE51
:1081A0009005E4E584F0758400C2FA759B03128B98
:1081B00065C2FF9005DF120AE67810120AA58F9BB0
:1081C000128B65C2FF9005DF120AE67808120AA535
:1081D0008F9B128B65C2FF9005DF120AE68F9B1200
:1081E0008B65C2FF759B00128B65C2FFD2FA7F01BF
:1081F0007E00128F6E9005E3E59BF09005E4E0FFB2
:078200008F849005E3E0FF0D
:018207002254
:108B65009014E0E584F09014E17401F075840090B0
:108B750014E2E4F0A3E4F09014E2E475F0011208C5
:108B85003B9014E2E0FEA3E0FFC374C89FE49E504F
:108B9500079014E1E4F0800330FFDC9014E0E0FF7F
:078BA5008F849014E1E0FF52
:018BAC0022A6
:10964B0090156DE584F075840075A31075A20090DC
:06965B00156DE0FF8F8495
:0196610022E6
:05002600424C4F4200B6
:0867ED00410602004106030011
:0B974500900602E4F0900603E4F0221E
:0497A90012974522AC
:0497AD0012974522A8
:108D0200900602E0FFEF7038900603E0FFEF60305C
:108D12007B017A0679D9C003C002C0017B017A06C1
:108D22007904A801AC02AD03D001D002D0037E00C9
:108D32007FD51206FE9006027401F0900603E4F05D
:018D4200220E
:0F96D200128D02900603E0FFEF700312938422C3
:109384007B017A15796E901497E4F0A37401F07F51
:1093940000128BF3EF600F9007D2E4F0A37414F083
:0693A4009007D47401F0F3
:0193AA0022A0
:107E6B007B017A0679D99014E4120B819014E412F9
:107E7B000B61901497E4F0A374D5F07F00128BF391
:107E8B00EF601B7DD57C007F00128FA79014E4124E
:107E9B000B617DD57C0012003E900603EFF07B0159
:107EAB007A1479E7901497E4F0A37401F07F001231
:107EBB008BF3EF600B7D017C007F00128FA780DEC0
:107ECB00900603E0FFEF6009128D027F4E120076E1
:067EDB00227F5212007626
:017EE100227E
:050076009014E8EFF01A
:10007B007E007F039014E8E0FD7B017A1479E9128E
:10008B000D517B017A1479E990149DE4F0A374036C
:06009B00F07F00128CC092
:0100A100223C
:1080B80090156FEFF090156FE0FFEF120B8A80D9E3
:1080C80000810D01811202811903811E04000081C3
:1080D80023900602E0FFEF60457BFF7A0079269047
:1080E800149DE4F0A37404F07F00128CC07B017A25
:1080F80006790490149DE4F0A374D5F07F00128CE7
:10810800C0801B801912976F80147F6812007680D8
:108118000D1297A980081297AD80037F00227F0176
:018128002234
:01003A0022A3
:09976F00900602E4F0128D0222C2
:05632A0090141DEFF0CE
:10632F0090141DE0FF7B017A14791E901497E4F00E
:10633F00A37408F0128BF3EF7003026449901426D4
:10634F007401F0901426E0FF90141EE0FEEEB4509E
:10635F00047E0180027E00EF5EFF901426EFF09026
:10636F001426E0FF90141FE0FEEEB449047E018076
:10637F00027E00EF5EFF901426EFF0901426E0FFF0
:10638F00901420E0FEEEB443047E0180027E00EF05
:10639F005EFF901426EFF0901426E0FF901421E09A
:1063AF00FEEEB454047E0180027E00EF5EFF901477
:1063BF0026EFF0901426E0FF901422E0FEEEB40ECC
:1063CF00047E0180027E00EF5EFF901426EFF090B6
:1063DF001426E0FFC0077B017A14791E7D087C002C
:1063EF0012003EAE07D007EF5EFF901426EFF0903D
:1063FF001426E0FFEF602F901426E0FFC0079014E3
:10640F0023E0FF1280B8AE07D007EF5EFF9014268F
:10641F00EFF0901426E0FFEF600C90141DE0FF7D6D
:10642F00087C00128FA7901426E0FFEF700C9014D9
:0A643F001DE0FF7D017C00128FA715
:016449002230
:0B8BAD0090148DEFF090148E120B81DD
:108BB800901491E584F075840075D80090148DE0C8
:108BC800FF8FD990148E120B61120BB0901492EF94
:108BD800F0D2DE901492E0FFEF600543E6088003D0
:0A8BE80053E6F7901491E0FF8F842C
:018BF2002260
:1087E80090154EEFF090154FEDF090154EE0FFEF1D
:1087F800120B8A88110088190188210288290388A8
:1088080031048839050000884090154FE0FF8FDA61
:108818002290154FE0FF8FDB2290154FE0FF8FDC91
:108828002290154FE0FF8FDD2290154FE0FF8FDE7D
:098838002290154FE0FF8FDF22B2
:0A6B8600901521EFF0901522EDF0BC
:106B9000901523E584F0758400901521E0FFEF1235
:106BA0000B8A6BB8006BD7016BF5026C12036C2F6C
:106BB000046C4C0500006C67901522E0FFEF700636
:106BC00053DABD026C6743DA42901522E0FFC374CA
:106BD000FF9FF5FC026C67901522E0FFEF700653F3
:106BE000DBBD026C6743DB42901522E0FFC374FFFC
:106BF0009FF5FE8072901522E0FFEF700553DCBD1B
:106C0000806543DC42901522E0FFC374FF9FF5EAE4
:106C10008055901522E0FFEF700553DDBD8048439D
:106C2000DD42901522E0FFC374FF9FF5EC803890A1
:106C30001522E0FFEF700553DEBD802B43DE42904E
:106C40001522E0FFC374FF9FF5EE801B901522E034
:106C5000FFEF700553DFBD800E43DF42901522E049
:0E6C6000FFC374FF9FF5E2901523E0FF8F84C1
:016C6E002203
:0C9721001293F6901550EEF0A3EFF0222A
:10848400901463120B81901466ECF0A3EDF0901439
:1084940068E0FCA3E0FD901466E0FEA3E0FF120791
:1084A400B0901550E0FEA3E0FFC3EF9DFFEE9CFEED
:1084B400901463120B61EE8FF01208EC901468E0D4
:1084C400FEA3E0FF901463120B61758202758300B2
:1084D400EE8FF012090B901463120B617582047510
:0884E4008300740212077C22E0
:068A84009014AF120B81FB
:108A8A009014AF120B61120851FFAEF0901550E02E
:108A9A00FCA3E0FDC3ED9FFFEC9EFE9014B2EEF046
:108AAA00A3EFF09014AF120B617582027583001266
:108ABA00087CFFAEF09014B2E0FCA3E0FDC3EF9D8A
:048ACA00FFEE9CFE21
:018ACE002285
:1095CE00901524120B81901550E0FEA3E0FF90152C
:0B95DE0024120B61EE8FF01208EC224B
:0673B1009014B4120B81E0
:1073B7009014B4120B6175820475830012073DFFA8
:1073C700EF7017901550E0FEA3E0FF9014B4120B76
:1073D70061EE8FF01208EC02746A9014B4120B611C
:1073E700120851FFAEF0901550E0FCA3E0FDC3ED8D
:1073F7009FFFEC9EFE9014B7EEF0A3EFF09014B44D
:10740700120B6175820275830012087CFFAEF09043
:1074170014B7E0FCA3E0FDD3EF9DEE9C504590141C
:10742700B4120B6175820275830012087CFFAEF0FF
:107437009014B4120B61EE8FF01208B49014B412CA
:107447000B6175820475830012073DFFEFB40110CD
:107457009014B4120B61758204758300E412077CE3
:057467007F01227F00FF
:01746C0022FD
:108BF300901493EFF0901494120B81901493E0FF70
:108C0300EF120B8A8C11008C230100008C35901419
:108C130094120B61901497E0FCA3E0FD12746D2293
:108C2300901494120B61901497E0FCA3E0FD12756D
:058C33001B227F00225E
:108FA700901527EFF0901528ECF0A3EDF09015271A
:108FB700E0FFEF120B8A8FC7008FD30100008FDE0F
:108FC700901528E0FEA3E0FF12861D22901528E0E9
:088FD700FEA3E0FF12834B2210
:108CC000901499EFF090149A120B81901499E0FF90
:108CD000EF120B8A8CDE008CF00100008D019014E5
:108CE0009A120B6190149DE0FCA3E0FD12855322C3
:108CF00090149A120B6190149DE0FCA3E0FD128584
:028D0000B82297
:0867F5004114BE004114C20072
:10930D009014B9120B819014BCECF0A3EDF09014F5
:10931D00B9120B619014BF120B819014BCE0FEA327
:08932D00E0FF9014BEEFF022F6
:108C3800901570EFF09014BF120B619014C2E0FF12
:108C4800EF3395E0FE8F828E83E58412077C9014C3
:108C5800BEE0FFEF14FF9014C2E0FEC3EF6480F89B
:108C6800EE64809850069014C2E004F0901570E00D
:048C7800FF8F8422C4
:109293009014C2E0FFEF60069014C2E014F0901443
:1092A300BF120B619014C2E0FFEF3395E0FE8F8293
:0992B3008E8312073DFF8F842217
:085E4100901323EEF0A3EFF033
:105E4900901323E0FEA3E0FFEEFF7E00901325EF01
:105E5900F0901332E4F0A3E4F0901332E0FEA3E0F3
:105E6900FFC3EE94014003025F8D901332E0FEA35D
:105E7900E0FF90132FEFF090132EE4F090132EE033
:105E8900FFEFC39408505E90132FE0FFEF30E72E29
:105E990090132FE0FFEF25E0FFEF54FEFF9013254D
:105EA900E0FEEF6EFF90132FEFF090132EE0FF74DA
:105EB900262FF582E43413F5837401F0801F9013C3
:105EC9002FE0FFEF25E0FF90132FEFF090132EE066
:105ED900FF74262FF582E43413F583E4F090132E32
:105EE900E004F08097901330E4F0A3E4F090132ECF
:105EF900E4F090132EE0FFEFC39408505490132E52
:105F0900E0FF74262FF582E43413F583E0FFEF6098
:105F190038901330E0FCA3E0FD90132EE0FFC3742A
:105F2900079FFF901323E0FAA3E0FBEBAE02A8075B
:105F3900088005C333CE33CED8F9FFEC6EFEED6F82
:105F4900FF901330EEF0A3EFF090132EE004F080F1
:105F5900A1901330E0FCA3E0FD901332E0FEA3E032
:105F6900FFEF25E0FFEE33FE740A2FF58274033E3E
:105F7900F583ECF0A3EDF0901332E475F00112080B
:045F89003B025E6217
:015F8D0022F1
:1089970090152AEEF0A3EFF090152CEDF090152A24
:1089A700E0FEA3E0FFEEFF7E007E00EF25E0FFEE96
:1089B70033FE740A2FF58274033EF583E0FCA3E0CF
:1089C700FD90152AE0FEA3E0FFEF7F00FE90152C37
:1089D700E0FB7A00EF2BFFEE3AFEEE6CFEEF6DFF49
:0189E700226D
:0E7AEF00901399120B8190139CECF0A3EDF014
:107AFD009013A0E4F0A3E4F0901399120B6190138E
:107B0D00A2120B819013A0E4F0A3E4F090139CE07B
:107B1D00FEA3E0FF9013A0E0FCA3E0FDC3ED9FEEFC
:107B2D006480F8EC648098503590139EE0FEA3E0DD
:107B3D00FF9013A2120B619013A0E0FCA3E0FD8D4A
:107B4D00828C8312073DFD12899790139EEEF0A350
:107B5D00EFF09013A0E475F00112083B80AE901386
:067B6D009EE0FEA3E0FF14
:017B730022EF
:108EFA00901552EEF0A3EFF0901552E0FEA3E0FFBA
:108F0A007D00128997901552EEF0A3EFF09015525A
:108F1A00E0FEA3E0FF7D00128997901552EEF0A3C0
:0B8F2A00EFF0901552E0FEA3E0FF22E4
:10003E009014C3120B819014C6ECF0A3EDF0901443
:10004E00C3120B619014C6E0FCA3E0FD90139EE476
:10005E00F0A3E4F0127AEF128EFAEF4E70047F01E5
:05006E0080027F00226A
:107EE2009014EC120B819014EFEDF09014EFE0FF80
:107EF200EF3395E0FEC374049FFFE49EFE7D007B9A
:107F0200017A01796B120D519014EFE0FFEF339576
:107F1200E0FE9014EC120B61C003C002C001901489
:107F2200EFE0FDED3395E0FCC374049DFDE49CFCA1
:107F3200746B2DF974013CFA7B01A801AC02AD030C
:107F4200D001D002D0031206FE7B017A01796B7D4B
:077F5200047C00129158228B
:1030F70090016FE0FFEF120B8A3137013141023146
:103107004B0334D40434DF053500063648073651FF
:103117000836C60936EC0A37080B37240C37320D48
:10312700373C0E37430F3766123763130000376695
:103137007B017A0179F412968C227B017A02792C31
:1031470012968C22900170E0FF901554EFF09015C5
:1031570054E0FFEF120B8A321F01321F02321F03A6
:10316700321F04321F053234063234073234083234
:10317700550932550A32550B32760C32760D3276B6
:103187000E32970F32A31032A31132C41232D0136A
:1031970032F51432F515330A16331617332218335E
:1031A7002E19333A1A333A1B333A1C333A1D335B21
:1031B7001E335B1F335B20335B21337C22337C233D
:1031C700337C24337C25339126339D2733A9283339
:1031D700B52933C12A33CD2B33D92D33E52F33F11D
:1031E7003033FD31340932341533342134342D353D
:1031F700343936344537345138345D3934693A34E3
:10320700753B34813C348D3D34993E34A53F34A51C
:103217004034C64100003766901554E0FF74F32F21
:10322700F9E43401FA7B017D01127EE22290155404
:10323700E0FFEF3395E0FEEF25E0FFEE33FE74EDA0
:103247002FF974013EFA7B017D02127EE22290156E
:1032570054E0FFEF3395E0FEEF25E0FFEE33FE7419
:10326700ED2FF974013EFA7B017D02127EE2229076
:103277001554E0FFEF3395E0FE7C007D1712079EA3
:1032870074912FF974013EFA7B017D02127EE222CE
:103297007B017A02792C7D01127EE222901554E09F
:1032A700FFEF3395E0FEEF25E0FFEE33FE74E52FE9
:1032B700F974013EFA7B017D02127EE2227B017ADC
:1032C7000279097D02127EE2227F007E007DC87CA2
:1032D7004290026B120AF212019E1203FB901555DF
:1032E700EFF07B017A1579557D01127EE222901568
:1032F70054E0FF74F82FF9E43401FA7B017D0112E1
:103307007EE2227B017A02792D7D01127EE2227B09
:10331700017A02790E7D02127EE2227B017A02791E
:10332700107D02127EE2227B017A0279367D01123C
:103337007EE222901554E0FFEF3395E0FEEF25E0A3
:10334700FFEE33FE74DE2FF974013EFA7B017D0236
:10335700127EE222901554E0FFEF3395E0FEEF2551
:10336700E0FFEE33FE74DE2FF974013EFA7B017D38
:1033770002127EE222901554E0FF74002FF9E43424
:1033870002FA7B017D01127EE2227B017A02793704
:103397007D01127EE2227B017A0279267D01127E6F
:1033A700E2227B017A0279277D01127EE2227B01EC
:1033B7007A0279387D01127EE2227B017A0279391D
:1033C7007D01127EE2227B017A0279287D01127E3D
:1033D700E2227B017A0079187D02127EE2227B01CC
:1033E7007A0279297D02127EE2227B017A00791A1C
:1033F7007D01127EE2227B017A02793C7D01127EF9
:10340700E2227B017A02793B7D01127EE2227B0177
:103417007A02792E7D01127EE2227B017A02792FD0
:103427007D01127EE2227B017A1279467D02127EAD
:10343700E2227B017A0279417D02127EE2227B0140
:103447007A0279437D02127EE2227B017A02794574
:103457007D02127EE2227B017A0279477D02127E8B
:10346700E2227B017A0279497D02127EE2227B0108
:103477007A02794B7D02127EE2227B017A02794D34
:103487007D02127EE2227B017A02794F7D02127E53
:10349700E2227B017A0279517D02127EE2229015A7
:1034A70054E0FFEF3395E0FEEF25E0FFEE33FE74C7
:1034B700D52FF974013EFA7B017D02127EE2227B51
:1034C700017A0279577D00127EE222222290017052
:1034D700E0FF90022DEFF022900170E0FF9002379D
:1034E700EFF0900237E0FFEF543FFF90023CEFF020
:1034F700900237E0FF1286D822900172E0FEA3E027
:10350700FF900018EEF0A3EFF0900170E0FF90013C
:1035170071E0FD900018E0FAA3E0FB127B749001C4
:1035270070E0FFEF120B8A354400356F01359A02C0
:1035370035C50335F004361B050000376690017169
:10354700E0FFD3EF64809480400F90023CE0FFEFF0
:103557004401FF90023CEFF02290023CE0FFEF5461
:10356700FEFF90023CEFF022900171E0FFD3EF6481
:10357700809480400F90023CE0FFEF4402FF9002EE
:103587003CEFF02290023CE0FFEF54FDFF90023C3D
:10359700EFF022900171E0FFD3EF64809480400F39
:1035A70090023CE0FFEF4404FF90023CEFF02290D2
:1035B700023CE0FFEF54FBFF90023CEFF02290014A
:1035C70071E0FFD3EF64809480400F90023CE0FFEE
:1035D700EF4408FF90023CEFF02290023CE0FFEF3F
:1035E70054F7FF90023CEFF022900171E0FFD3EF18
:1035F70064809480400F90023CE0FFEF4410FF90FE
:10360700023CEFF02290023CE0FFEF54EFFF900204
:103617003CEFF022900171E0FFD3EF64809480408B
:103627000F90023CE0FFEF4420FF90023CEFF022B6
:1036370090023CE0FFEF54DFFF90023CEFF02222C4
:1036470022900170E0FF127C79227B017A01797068
:10365700C003C002C0017B017A0279B5A801AC02A0
:10366700AD03D001D002D0037E007F021206FE7B9D
:10367700017A017972C003C002C0017B017A027925
:10368700CCA801AC02AD03D001D002D0037E007FED
:10369700021206FE7B017A017974C003C002C001E1
:1036A7007B017A0279E3A801AC02AD03D001D00215
:1036B700D0037E007F021206FE7F02127C792290E1
:1036C7000172E0FEA3E0FF900018EEF0A3EFF09088
:1036D7000170E0FF900171E0FD900018E0FAA3E0AF
:1036E700FB1277AB22900170E0FEA3E0FF90001879
:1036F700EEF0A3EFF0900018E0FEA3E0FF12926A4D
:1037070022900170E0FEA3E0FF900018EEF0A3EF17
:10371700F0900018E0FEA3E0FF12924122900170A2
:10372700E0FF900171E0FD129553227B017A127937
:10373700441295CE2212841C1279E322900170E084
:10374700FFEFB4010690004F7401F0900170E0FFA5
:0F375700EFB4020B9000507401F0222212976F12
:013766002240
:089778007F7F7F7F1C18180899
:0B58BE00901364120B81901367EDF053
:1058C9007BFF7A977978C003C002C0017B017A1304
:1058D9007968A801AC02AD03D001D002D0037E00E3
:1058E9007F081206FE7F0F128C38901370E4F09037
:1058F9001370E0FFC3EF648094884003025A279035
:105909001370E0FFEF1392DB901370E0FFEFA2E753
:1059190013FFEF1392DC901370E0FFEFA2E713A2DD
:10592900E713FFEF1392DD7F647E00128F6E9013F1
:1059390071E4F0901371E0FFC3EF64809487400332
:10594900025A1E901370E0FFEF3395E0FEEF7805E1
:10595900C333CE33CED8F9FF901364120B61E92F0C
:10596900F9EA3EFA901371E0FFEF3395E0FEEF7824
:1059790002C333CE33CED8F9FFE92FF9EA3EFA1242
:105989000B3B00000000901370E0FFEF3395E0FE41
:1059990074682FF58274133EF583E0FF901371E06C
:1059A900FEEFA806088002C313D8FCFFEF30E05CC5
:1059B900901371E0FF901367E0FD12716BC004C092
:1059C90005C006C007901370E0FFEF3395E0FEEFC6
:1059D9007805C333CE33CED8F9FF901364120B6127
:1059E900E92FF9EA3EFA901371E0FFEF3395E0FEF3
:1059F900EF7802C333CE33CED8F9FFE92FF9EA3E67
:105A0900FAD007D006D005D004120ACC901371E061
:105A190004F002593C901370E004F00258F8129215
:015A290093E9
:015A2A002259
:108F6E00901556EEF0A3EFF0901556E0FEA3E0FF3D
:108F7E00EEC313FEEF13FF901556EEF0A3EFF09035
:108F8E001556E0FEA3E0FFEF4E600D90155674FFF0
:098F9E0075F0FF12083B80E72288
:0C972D00129795EF70037F0C227F0C2236
:0C973900129795EF70037F08227F082232
:0967FD0042152E800041152D000B
:10943F00901571EFF012964B7F00127FD09015713F
:10944F00E0FFEF3395E0FEEF7F00FE90152EEEF07C
:04945F00A3EFF02265
:0E96E100D20B7F007E007D007C0012722F22D3
:0E96EF00D20B7F807E007D007C0012722F2245
:0888410090146AEEF0A3EFF0C1
:108849001296E1901470EFF090152EE0FEA3E0FF70
:10885900AB07AA06EA3395E0F9F8901470E0FFE453
:10886900FCFDFE120953A804A905AA06AB0790143A
:108879006AE0FEA3E0FFEE3395E0FDFC12093890B3
:0E888900146C120AFE90146C120AE612819A08
:0188970022BE
:1096B300901572EFF0901572E0FF90152DEFF022E8
:107FD000901573EFF0901573E0FFEF7011D20B7FE7
:107FE000007E007D007C0012722FEFB4FF1FD20DC7
:107FF0007F007E007D007C001270A4901459E4F094
:10800000D2097F007E007D007C00126F0E901573F8
:10801000E0FFEF7011D20B7F807E007D007C0012AC
:10802000722FEFB4FF1FD20D7F807E007D007C0099
:108030001270A4901459E4F0D2097F807E007D0074
:068040007C00126F0E220D
:0D4185009009ACEEF0A3EFF09009AEEDF064
:104192001296E19009B9EFF090152EE0FEA3E0FF30
:1041A200AB07AA06EA3395E0F9F89009B9E0FFE413
:1041B200FCFDFE1209539009B1120AFE9009ACE00F
:1041C200FEA3E0FFEE3395E0FDFC9009B1120AF286
:1041D2001209389009BB120AFE1296EF9009BAEF43
:1041E200F090152EE0FEA3E0FFAB07AA06EA339596
:1041F200E0F9F89009BAE0FFE4FCFDFE120953A8C9
:1042020004A905AA06AB07C3E49BFFE49AFE740265
:1042120099FDE498FCC004C005C006C00790152EA5
:10422200E0FEA3E0FFAB07AA06EA3395E0F9F8D077
:1042320007D006D005D0041209459009B5120AFE2E
:104242009009ACE0FEA3E0FFEE3395E0FDFC90099F
:10425200B5120AF21209389009BF120AFE9009BB80
:10426200120AE69009AEE0FB901435EBF0125B8F78
:104272009009BF120AE69009AEE0FB901435EBF00C
:10428200125B8F9009BB120AE612819A9009AEE086
:10429200FEEFB5060D90152DE0FFEF6401600302FD
:1042A20043619009B9E004F0D20D7F007E007D00E9
:1042B2007C001270A49009B9E0FF901459EFF0D27B
:1042C200097F007E007D007C00126F0E90152EE0AB
:1042D200FEA3E0FFAB07AA06EA3395E0F9F89009DE
:1042E200B9E0FFE4FCFDFE1209539009B1120AFE87
:1042F20090152DE4F09009AFE4F0A3E4F090152EB0
:10430200E0FEA3E0FF9009AFE0FCA3E0FDC3ED9F58
:10431200EE6480F8EC64809850459009AFE0FEA30B
:10432200E0FFEE3395E0FDFC9009B5120AF21209A6
:104332003812819A901435EFF09009AFE0FEA3E0B5
:10434200FFEE3395E0FDFC9009B1120AF212093832
:10435200125B8F9009AFE475F00112083B809E90CA
:1043620009BF120AE612819A9009AEE0FEEFB50685
:104372000D90152DE0FFEF6402600302447890096E
:10438200BAE004F0D20D7F807E007D007C001270C6
:10439200A49009BAE0FF901459EFF0D2097F807E11
:1043A200007D007C00126F0E90152EE0FEA3E0FF50
:1043B200AB07AA06EA3395E0F9F89009BAE0FFE400
:1043C200FCFDFE120953A804A905AA06AB07C3E423
:1043D2009BFFE49AFE740299FDE498FCC004C005B8
:1043E200C006C00790152EE0FEA3E0FFAB07AA06A9
:1043F200EA3395E0F9F8D007D006D005D0041209C7
:10440200459009B5120AFE90152DE4F09009AFE42B
:10441200F0A3E4F090152EE0FEA3E0FF9009AFE0D8
:10442200FCA3E0FDC3ED9FEE6480F8EC648098503D
:10443200459009AFE0FEA3E0FFEE3395E0FDFC906E
:1044420009B1120AF212093812819A901435EFF06A
:104452009009AFE0FEA3E0FFEE3395E0FDFC90098A
:10446200B5120AF2120938125B8F9009AFE475F0A7
:084472000112083B809E7F014E
:01447A00221F
:0E7DF2009013A5EEF0A3EFF09013A7120B81F3
:107E00009013A7120B619013AE120B819013ACE488
:107E1000F0A3E4F09013AAE0FEA3E0FF9013ACE01F
:107E2000FCA3E0FDC3ED9FEE6480F8EC6480985005
:107E3000379013A5E0FEA3E0FF1288419013AE1225
:107E40000B619013ACE0FCA3E0FD8D828C83EF12FC
:107E5000077C9013A5E475F00112083B9013ACE485
:0A7E600075F00112083B80AC7F01B1
:017E6A0022F5
:0E7F59009013B1EEF0A3EFF09013B3120B8172
:107F67009013B3120B619013BA120B819013B8E4FC
:107F7700F0A3E4F09013B6E0FEA3E0FF9013B8E09F
:107F8700FCA3E0FDC3ED9FEE6480F8EC648098509D
:107F9700359013B1E0FEA3E0FF9013BA120B611204
:107FA7000724FD1241859013B1E475F00112083BD7
:107FB7009013BBE475F00112083B9013B8E475F019
:087FC7000112083B80AE7F01AE
:017FCF00228F
:109335004F7363696C6C61746F723A202562780DA6
:109345000A0A004E65772054657374204461746180
:089355003A202562752E0A0082
:1068060041123E00410A200041129F00420A1E002A
:016816000081
:1093D1007D427F001287E87D427F011287E87D424E
:1093E1007F021287E81296FD1297157D407F0512C4
:0593F10087E87F002267
:10536500901476E4F0901477E4F075840FC2C8C207
:10537500C9C2CAC2CBD2CCC2CFD2D8D2CDC2CED26C
:10538500D9C2DAC2DFD2DEC2DBC2DCC2DDD2FB901B
:1053950001F2E4F0A3E4F0900298E4F01296A0C2C2
:1053A500AFC2AF12000312918B7B017A1279217D76
:1053B500187C0012930D7F057E80125E417F0112DD
:1053C500943F1295E9901472120AFE1297391290C1
:1053D500EE12972D901483EFF0901472120AE612D4
:1053E5007BF7901472120AE6128E80901472120ADC
:1053F500E6128B1A901472120AE61281297B017A41
:105405000A7921C003C002C0017B017A0E7921907F
:105415001385120B819013887402F0A3E4F09013A6
:105425008A740FF0D001D002D0037D007C0212787F
:105435003E7B017A0C7921C003C002C0017B017A51
:10544500107921901392120B819013957402F0A399
:10545500E4F0D001D002D0037D007C02127A6A7B91
:10546500FF7A9379D17F04128BAD12961C9014723A
:10547500120AE69009C97409F0A3747EF01283B488
:10548500901472120AE6900A107401F0A374F4F0F5
:10549500128D437B017A01796F7D647C00128FDF69
:1054A500901472120AE69001ED120AFE7F0C128E1C
:1054B500021295111295327F107E271294EFD2AF0A
:1054C500129721900269E0FFEFB4011112979590B0
:1054D50012A3EFF07BFF7A937935123D6D75840F3A
:1054E5007B017A1279497D207C00128D837B007DBA
:1054F5000C7F001291E91296621297217B017A00C6
:1055050079609014687401F0A374F4F07D007C0058
:10551500128484900A20E0FFEF60F8900A20E4F0FE
:105525001297211296627F011251507B017A007900
:10553500601273B1EF60DC7BFF7A93794890147742
:10554500E0FF04F09012A3EFF0123D6D7B017A01AC
:0F55550079F47D837C007FF47E01125F8E80B439
:015564002224
:03002B00028A370F
:108A3700C0E0C0F0C083C082C0D075D000C000C005
:108A470001C002C003C004C005C006C007C2CF9062
:108A570001F2E475F00112083B900A207401F0124C
:108A670093ABD007D006D005D004D003D002D001F5
:0D8A7700D000D0D0D082D083D0F0D0E0323B
:1093F600A2AF9215C2AFC2AF9001F2E0FEA3E0FFAA
:10940600901558EEF0A3EFF0A21592AF901558E024
:04941600FEA3E0FFD2
:01941A00222F
:0A9765007B017A1279441295CE229E
:10912400901574EFF0900269E0FFEFB401167B0133
:109134007A15797490149DE4F0A37401F07F001201
:109144008CC0800A901574E0FD7F00127D75901527
:0491540074E0FF22A2
:10918B007F0F128C3875E1F775E2FF75E37D75ADD6
:10919B00FC43900375A40175A5F475A60375A70090
:1091AB00759CCF759DBC759E00759F031292932283
:0C681700411534004115330041153500D7
:1091E900901530EFF0901531EDF0901532EBF090CD
:1091F9001530E0FF901534EFF0901531E0FF901530
:0E92090033EFF0901532E0FF901535EFF022B4
:105F8E0090130DEEF0A3EFF090130FECF0A3EDF0E5
:065F9E00901311120B81AB
:105FA400901311120B6190131E120B81901321E4B4
:105FB400F0A3E4F09013147458F09013157444F0A3
:105FC4009013167441F09013177454F0901318E45E
:105FD400F0901533E0FF901319EFF090130DE0FEED
:105FE400A3E0FFEEFF3395E0FE90131AEFF0901359
:105FF4000DE0FEA3E0FF90131BEFF090130FE0FE03
:10600400A3E0FFEEFF3395E0FE90131CEFF0901336
:106014000FE0FEA3E0FF90131DEFF07B017A1379EC
:1060240014901321E0FEA3E0FF90139EEEF0A3EF83
:10603400F07D0A7C00127AEF901321EEF0A3EFF0CA
:10604400901534E0FF7B017A13791490149DE4F0E9
:10605400A3740AF0128CC090131E120B6190130FDC
:10606400E0FCA3E0FD901321E0FEA3E0FF90139E6B
:10607400EEF0A3EFF0127AEF901321EEF0A3EFF01D
:10608400901534E0FF90131E120B6190130FE0FC87
:10609400A3E0FD90149DECF0A3EDF0128CC09013DE
:1060A40021E0FEA3E0FF128EFA901321EEF0A3EF9D
:1060B400F0901534E0FF7B017A13792190149DE46C
:0860C400F0A37402F0128CC07D
:0160CC0022B1
:055150009001D3EFF017
:105155009001E8E4F09001EAE4F0A3E4F09015345E
:10516500E0FF7B017A0179D4901497E4F0A37410E1
:10517500F0128BF3EF700302535F9001E97401F0B5
:105185009001E9E0FF9001D4E0FEEEB458047E0101
:1051950080027E00EF5EFF9001E9EFF09001E9E00B
:1051A500FF9001D5E0FEEEB444047E0180027E004E
:1051B500EF5EFF9001E9EFF09001E9E0FF9001D685
:1051C500E0FEEEB441047E0180027E00EF5EFF90BA
:1051D50001E9EFF09001E9E0FF9001D7E0FEEEB4C0
:1051E50054047E0180027E00EF5EFF9001E9EFF03E
:1051F5009001E9E0FF9001D8E0FEEEB401047E01E4
:1052050080027E00EF5EFF9001E9EFF09001E9E09A
:10521500FF901533E0FE9001D9E0FDED6E6008903A
:105225001535E0FEEE60047E0180027E00EF5EFF34
:105235009001E9EFF09001E9E0FFEF700302533BC5
:105245009001DAE0FEA3E0FF9001E4EEF0A3EFF0B9
:105255009001DCE0FEA3E0FF9001E6EEF0A3EFF0A5
:105265009001E9E0FF9001E6E0FCA3E0FDC3E49DC9
:10527500EC6480F8E464809850179001E6E0FCA3A4
:10528500E0FDD3ED9404EC6480948050047E0180AD
:10529500027E00EF5EFF9001E9EFF09001E9E0FF8B
:1052A500C0077B017A0179D47D107C0012003EAEE7
:1052B50007D007EF5EFF9001E9EFF09001E9E0FF0D
:1052C500EF6073C2AFC2AF9001E6E0FEA3E0FF90CE
:1052D50001E6E0FCA3E0FDC3740E9DFDE49CFC74B7
:1052E500D42DF974013CFA7B01C003C002C00190C2
:1052F50001E4E0FCA3E0FD9001EAE0FAA3E0FBEBAA
:105305002DFDEA3CFCAA04A9057B01A801AC02AD70
:1053150003D001D002D0031206FED2AF901534E0BF
:10532500FF7D107C00128FA79001E8E0FFEF44019C
:10533500FF9001E8EFF09001E9E0FFEF700C9015A8
:1053450034E0FF7D017C00128FA79001D3E0FFEFD1
:0F535500600302516280030251629001E8E0FFA1
:015364002226
:0668230043142A000000EE
:108D83009014C8120B819014CBECF0A3EDF0901467
:108D9300C8120B6190142A120B81901429E4F090ED
:108DA300142FE4F0A3E4F09014CBE0FEA3E0FF90D3
:108DB3001427EEF0A3EFF090142DE4F0A3E4F022D7
:1087340090142A120B61EA494B604F90142FE0FE0B
:10874400A3E0FFEF4E6043901429E0FFEF3395E080
:10875400FE90142DE0FCA3E0FD90142FE0FAA3E0BA
:10876400FBC002C00390142A120B61900006120B86
:1087740081D003D002125CEF90142FE4F0A3E4F054
:0B87840090142DE475F00112083B2258
:107D750090155AEFF090155BEDF090142A120B61F7
:107D8500EA494B606790155AE0FF901429E0FEEE32
:107D95006F600F90142FE0FEA3E0FFEF4E6003121B
:107DA500873490155AE0FF901429EFF090155BE0A9
:107DB500FF90142A120B6190142FE0FCA3E0FD8DB7
:107DC500828C83EF12077C90142FE475F001120862
:107DD5003B901427E0FEA3E0FF90142FE0FCA3E006
:0D7DE500FDEDB50707ECB50603128734224B
:0B84EC009013DFEFF09013E0120B8103
:1084F7009013E0120B619013E7120B819013E5E4E0
:10850700F0A3E4F09013E3E0FEA3E0FF9013E5E0AF
:10851700FCA3E0FDC3ED9FEE6480F8EC6480985007
:108527002A9013DFE0FF9013E7120B619013E5E049
:10853700FCA3E0FD8D828C8312073DFD127D7590B3
:0B85470013E5E475F00112083B80B959
:018552002206
:105CEF00900000EEF0A3EFF0900002ECF0A3EDF0C7
:085CFF00900004EAF0A3EBF0B1
:105D0700900006120B61900013120B81900016E4AD
:105D1700F0A3E4F09000097453F090000A7454F073
:105D270090000B7452F090000C7445F0900000E066
:105D3700FEA3E0FFEEFF3395E0FE90000DEFF0903D
:105D47000000E0FEA3E0FF90000EEFF0900002E0FD
:105D5700FEA3E0FFEEFF3395E0FE90000FEFF0901B
:105D67000002E0FEA3E0FF900010EFF0900004E0D7
:105D7700FEA3E0FFEEFF3395E0FE900011EFF090F9
:105D87000004E0FEA3E0FF900012EFF07B017A0031
:105D97007909900016E0FEA3E0FF90139EEEF0A3B2
:105DA700EFF07D0A7C00127AEF900016EEF0A3EF79
:105DB700F0901534E0FF7B017A00790990149DE497
:105DC700F0A3740AF0128CC0900013120B619000BC
:105DD70004E0FCA3E0FD900016E0FEA3E0FF9013B3
:105DE7009EEEF0A3EFF0127AEF900016EEF0A3EF1D
:105DF700F0901534E0FF900013120B61900004E05F
:105E0700FCA3E0FD90149DECF0A3EDF0128CC09084
:105E17000016E0FEA3E0FF128EFA900016EEF0A344
:105E2700EFF0901534E0FF7B017A00791690149D0E
:095E3700E4F0A37402F0128CC027
:015E4000223F
:108276009014CDE4F01293F69014CEEEF0A3EFF046
:108286009014D0E4F0A3E4F09014D0E0FEA3E0FF55
:10829600C3EF9488EE9413503C7B017A1479CD7D1C
:1082A600017C0012751BEF60097F017E0012834B73
:1082B60080231293F69014CEE0FCA3E0FDC3EF9D5D
:1082C600FFEE9CFE9014D0EEF0A3EFF07F147E003C
:0A82D600128F6E80B39014CDE0FF0C
:0182E000227B
:0B82E10090149F120B819014A2EDF08E
:1082EC009014A4E4F09014A2E0FF14F0EF604A1292
:1082FC0082769014A3EFF09014A3E0FFEF603A9015
:10830C0014A4E004F09014A3E0FF90149FE475F023
:10831C0001120B6AEF12076A90149F120B61E412A0
:10832C00076A9014A3E0FFEF640D600D9014A3E0B6
:0E833C00FFEFB40AB0800280AC9014A4E0FF02
:01834A002210
:0B667900901372120B81901375EDF06E
:10668400901377120B0A00000000901372120B6132
:1066940090137C120B8190137FE4F0901375E0FF4C
:1066A40090137FE0FEC3EF6480F8EE6480984003AB
:1066B40002678090137CE475F001120B6A120724C0
:1066C400FF901376EFF0901376E0FFEF70079013CE
:1066D40077120AE62290137BE4F0901376E0FF74BD
:1066E40030D39F501B901376E0FFEFD394395010B2
:1066F400901376E0FFEF24D0FF90137BEFF0804AF5
:10670400901376E0FF7441D39F501B901376E0FF03
:10671400EFD394465010901376E0FFEF24C9FF9016
:10672400137BEFF08024901376E0FF7461D39F50C5
:1067340019901376E0FFEFD39466500E901376E031
:10674400FFEF24A9FF90137BEFF0901377120AE672
:106754007804120AB9901377120AFE901377120A7A
:10676400F290137BE0FFE4FCFDFE120938901377EE
:10677400120AFE90137FE004F002669F90137712D2
:026784000AE623
:0167860022F0
:1088EE00444200525353493A202D00256C640D002A
:1088FE004149005343002558005344002562580057
:10890E00494400256C58005A53004E4900434F4FBE
:10891E00524400444800444C00534E00535000470C
:10892E005400454500454F004B5900504C005752DE
:05893E000000414300B0
:1068290060210595303132333435363738393A3BC2
:106839003C3D3E3F404142434445464748494A4B17
:056849004C4D4E4F0014
:079780009005BF7401F02207
:10904C009014F0EEF0A3EFF09014F2ECF0A3EDF02E
:10905C009014F0E0FEA3E0FF7C037DE812079E90E5
:10906C0014F2E0FCA3E0FDEF2DFFEE3CFE9005BDFD
:06907C00EEF0A3EFF0226C
:109082009014F4EEF0A3EFF09014F6ECF0A3EDF0F0
:109092009014F4E0FEA3E0FF7C037DE812079E90AB
:1090A20014F6E0FCA3E0FDEF2DFFEE3CFE9005B8C8
:0690B200EEF0A3EFF02236
:079787009005BA7401F02205
:1090B8009014F8EEF0A3EFF09014FAECF0A3EDF0B2
:1090C8009014F8E0FEA3E0FF7C037DE812079E9071
:1090D80014FAE0FCA3E0FDEF2DFFEE3CFE9005C284
:0690E800EEF0A3EFF02200
:07978E009005C47401F022F4
:104A3D009009C4E0FFEF6003024C1D124762900520
:104A4D00E8EFF09008ABE0FFEF7003024B699008C0
:104A5D0090E0FFEF120B8A4B4A104B45174A748BAF
:104A6D004B5D9700004B64900A01E4F0900A0AE454
:104A7D00F07D007C007F057E0012904C1297809097
:104A8D000A007401F0126991900A1BE0FFEF6401B6
:104A9D006003024B3E7BFF7A8879EEC003C002C0F3
:104AAD00017B017A0579E990143D120B8190144038
:104ABD007402F0D001D002D00312644A9005E8EFE1
:104ACD00F01282089005E8E0FFEFD3940040627B7E
:104ADD00FF7A8879F190149DE4F0A37407F07F01BB
:104AED00128CC07B017A0579E97D021266799012EC
:104AFD00A6120AFE7B017A0579ECC003C002C00143
:104B0D007BFF7A8879F99012A3120B81D001D00224
:104B1D00D003123D677B017A0579EC1296779014DC
:104B2D009DEEF0A3EFF07B017A0579EC7F01128CFD
:104B3D00C09008ABE4F08024124CD5801F900888FB
:104B4D00E0FF900880E0FEEE6F6011126A92800C1B
:104B5D009008ABE4F080059008ABE4F0900A00E01B
:104B6D00FFEF600E7B017A0579BB1273B19009FFDF
:104B7D00EFF0900A0AE0FFEF60607B017A0579B6ED
:104B8D001273B1900A0BEFF0900A0BE0FFEF604A41
:104B9D00900A01E004F0900A01E0FFEFC394054094
:104BAD002B9005BD740775F0D012083B9005BDE044
:104BBD00FEA3E0FFD3EF9460EE94EA400A9005BDAA
:104BCD0074EAF0A37460F0900A01E4F012978090FB
:104BDD000A007401F0900A0AE4F09009FFE0FFEF7B
:104BED007003024CD4900A1BE0FFEF6003024CD41B
:104BFD007B017A0579951289431265629009FFE46C
:104C0D00F0129787900A0A7401F0900A00E4F022DE
:104C1D009009C4E0FFEFC394204075900A14E0FFA3
:104C2D00EF605E126991900A1BE0FFEF603F7BFF22
